:10C000007EF1B8F952F941FADDF91BF807F84BFB5C
:10C0100007F988FA44FAF2FA6EF1B3F272FA2FF9DC
:10C02000C3FAC5EE11FC39EACA03030000000000A0
:10C030001FFB1D0030000000000000000002000097
:10C0400000000000000003000003000000000000EA
:10C0500000000A000000003B00003B00003B000025
:10C060003B00003B00003B0000020745584543559C
:10C0700054451F0135066E8400000204455849549A
:10C0800037206EB10000040C455849542D4F4E2DF9
:10C0900054525545108300003506270237206EB1F3
:10C0A0000000040D455849542D4F4E2D46414C5328
:10C0B00045108300003506260237206EB1000004CB
:10C0C00004444956451F21372036106EB100000444
:10C0D00006444F444F455336203520351034061F53
:10C0E000106EB100000406444F444F4552BDC0F0ED
:10C0F000BDC0D7CD63C08000000403444F3ABDC02B
:10C10000F0362035206EB1C0C00408444F4352457C
:10C11000415445BDC0F0351034061F106EB100000B
:10C120000405444F564152BDC0F0351034061F106F
:10C130006EB100000406444F43434F4EBDC0F0357E
:10C14000103406E6841D6EB1C0FA0405444F434F17
:10C150004EBDC0F035103406EC846EB1C0E6040567
:10C16000444F56414CBDC0F035103406EC846EB1DE
:10C17000C15F0406444F49564152BDC0F0351034EA
:10C1800006EC846EB1C1210406444F4956414CBDB2
:10C19000C0F035103406EC946EB1C0D00406444FA4
:10C1A00056415253BDC0F05849E3E16EB1C0870219
:10C1B00005454D49543F3406B6B0005F840227015F
:10C1C0005A1D6EB100000409554152542D454D4988
:10C1D000548EB000A684840227FAE70135066EB1BA
:10C1E000000006062155534152548EB0008655A7D3
:10C1F0008435066EB1000002044B45593F3406B643
:10C20000B0005F840127015A1D6EB1C1F802034BD3
:10C21000455934068EB000E684C40127FAE6014F82
:10C220006EB1C06A0407494E4C494E45233406AEF0
:10C23000C4EC81AFC46EB1C07B0407494E4C494E7B
:10C2400045243406AEC4E6804F34103AAFC46EB114
:10C25000000004082F494E4C494E45243406AEC414
:10C26000E6803085AFC435066EB1C23A0406474F4A
:10C27000544F282910AEA46EB1C0A3040449462827
:10C2800029108300003506260510AEA46EB13122B8
:10C290006EB1C27C040849465A45524F2829108382
:10C2A00000003506270510AEA46EB131226EB10034
:10C2B00000040228293406ECA16EB1000004032812
:10C2C00043293406E6A01D6EB1C2BE0404544F28B3
:10C2D00029AEA1ED8435066EB1C26D04052B544F15
:10C2E0002829AEA1E384ED8435066EB1C22504068B
:10C2F000494E43522829AEA13406EC84C30001ED17
:10C300008435066EB1C2CC0404444F2829AEA13650
:10C31000101F01CC8000A3E13606308B36103506A5
:10C320006EB1C1C704053F444F282910A3E426DDA0
:10C330003262350610AEA46EB1C30804064C4F4FEE
:10C340005028293406ECC4C300012909EDC4350680
:10C3500010AEA46EB13122334635066EB1C20E0462
:10C36000072B4C4F4F502829E3C420DEC2B20205F0
:10C370004C45415645334437206EB1C2DC02065568
:10C380004E4C4F4F5033466EB1C1B0020149340696
:10C39000ECC4A3426EB1C19D02014A3406EC46A32F
:10C3A000486EB1C1880203425945BDC101C2B5FF03
:10C3B000FFC072C080C3990406544F50564F43BD0E
:10C3C000C1920023C36F0406544F504D5347BDC163
:10C3D000920025C14B0406544F50504658BDC1929F
:10C3E0000027C10A0406544F504E4641BDC1920079
:10C3F00029C3D60403484C44BDC192002BC2530448
:10C4000007434F4E54455854BDC192002DC32504D7
:10C4100003435323BDC192002FC1E304064D53478C
:10C42000232D32BDC1920031C40004044D4F444558
:10C43000BDC1920033C2EF040753454354494F4EE8
:10C44000BDC1920035C37E04062354494D4553BDFA
:10C45000C1920037C2950403234942BDC1920039FD
:10C46000C36004024942BDC192003BC3B8040554F5
:10C4700048455245BDC192003DC1350603484F5263
:10C48000BDC192003FC3E50603564552BDC19200AF
:10C4900041C33C060548494D454DBDC1920043C4CA
:10C4A0001C06024F4BBDC1920045C46E0604444FAA
:10C4B000543FBDC1920047C3C7020448455245BD21
:10C4C000C1920049C4380403575244BDC17D004B9A
:10C4D000C48802033E494EBDC17D004FC1730204B2
:10C4E00042415345BDC17D0051C4480205535441EA
:10C4F0005445BDC17D0053C457060527454D4954D9
:10C50000BDC17D0055C46306052753574933BDC1DE
:10C510007D0057C42B06052753574932BDC17D0006
:10C520005AC4A206052746495251BDC17D005DC5CA
:10C5300008060427495251BDC17D0060C53206047A
:10C5400027535749BDC17D0063C53F0604274E4DA3
:10C5500049BDC17D0066C4FA02064F524947494EA3
:10C56000BDC154C000C3A6040946494E44535441BA
:10C57000434BBDC13F75C516040743555252454E46
:10C5800054BDC13F7FC3F40403544942BDC15400AC
:10C5900080C55904025330BDC154017EC4AD0402AC
:10C5A0005230BDC15401FEC4BA0406464C5942552E
:10C5B00046BDC1540200C38C0403435330BDC15473
:10C5C00002FCC5AA040754494253495A45BDC13F1C
:10C5D0007EC594060443454C4CBDC13F02C4D30202
:10C5E0000454525545BDC13FFFC4DF020546414CCE
:10C5F0005345BDC13F00C5C50202424CBDC13F20ED
:10C60000C4100407434C4541522D5310CE017E35D2
:10C61000066EB1C5D40407434C4541522D52CE019C
:10C62000FE6EB1C5B9040353504034061F406EB1CD
:10C63000C5E0040352504034061F306EB1C60302F9
:10C640000243211F013506E78435066EB1C5790224
:10C6500001211F013506ED8435066EB1C5EC0202DD
:10C6600032211F013506ED813506ED8435066EB1A8
:10C67000C52402022B211F013506E384ED84350613
:10C680006EB1C4EC0603432B211F013506EB84E792
:10C690008435066EB1C6260603312B211F01EC84BA
:10C6A000C30001ED8435066EB1C616020243401F79
:10C6B00001E6844F6EB1C5680201401F01EC846E33
:10C6C000B1C59F020232401F01EC81AE8434106E6E
:10C6D000B1C6980205434F554E541F01E6804F34B2
:10C6E000106EB1C6330602402B1F01EC8134106E70
:10C6F000B1C5F902023E52360635066EB1C4940247
:10C7000002523E340637066EB1C6C40203323E52B0
:10C7100035103610360635066EB1C6F402033252B5
:10C720003E34063706371034106EB1C70C02025281
:10C73000403406ECC46EB1C6E60203325240340601
:10C74000AE423410ECC46EB1C70006055244524FDD
:10C750005033426EB1C72E0606325244524F503308
:10C76000446EB1C74B02053244524F503262350617
:10C770006EB1C71D020432445550AEE43406341085
:10C780006EB1C7750204324E495035103264341010
:10C790006EB1C7850205324F5645523406EC6634F9
:10C7A00006EC666EB1C76602053253574150360635
:10C7B000AEE4EC64AF64EDE43710EC62AF626EB1EE
:10C7C000C47C0205325455434BBDC101C7AEC79B63
:10C7D000C080C758020432524F54BDC101C710C7B0
:10C7E000AEC721C7AEC080C6D402043F4455501026
:10C7F000830000270234066EB1C6B9020444524FCA
:10C800005035066EB1C65F020344555034066EB112
:10C81000C6AC02044F5645523406EC626EB1C4C732
:10C82000020453574150AEE4EDE41F106EB1C795BA
:10C8300002045455434BAEE4EDE434106EB1C7A886
:10C840000203524F54AEE4EDE4EC62AF626EB1C548
:10C850004C02042D524F54AE62ED62ECE4AFE46E34
:10C86000B1C83102034E495032626EB1C841020470
:10C870005049434B581F413AEC846EB1C6850203C0
:10C880004D494E10A3E42DE035066EB1C673020388
:10C890004D415810A3E42ED035066EB1C6400604B3
:10C8A000554D494E10A3E425BF35066EB1C852065A
:10C8B00004554D415810A3E422AE35066EB1C7C3EE
:10C8C0000202303C1F891D1F896EB1C8640202300C
:10C8D0003D108300002604531D6EB14F5F6EB1C73B
:10C8E000FC0202303E1083000026026EB11F891D3B
:10C8F000431F896EB1C82102013DA3E127D94F5FD3
:10C900006EB1C80802023C3EA3E12703CCFFFF6ED4
:10C91000B1C8C10203303C3E1083000026EE6EB168
:10C92000C88F0202553EA3E125E24F5F6EB1C8B049
:10C930000202553CA3E122D44F5F6EB1C86F0201E1
:10C940003EA3E12DC74F5F6EB1C91402013CA3E1C4
:10C950002EBA4F5F6EB1C9310203414E44A4E0E4E8
:10C96000E06EB1C8F802024F52AAE0EAE06EB1C927
:10C970004C0203584F52A8E0E8E06EB1C89F02068F
:10C98000494E5645525443536EB1C58802064C5326
:10C99000484946541F013506308427065849301F40
:10C9A00026FA6EB1C8CE02065253484946541F01BA
:10C9B0003506308427064456301F26FA6EB1C9A7C3
:10C9C000060842595445535741501E896EB1C7EA73
:10C9D0000202312BC300016EB1C9660202312D8300
:10C9E00000016EB1C73A0202322A58496EB1C8E25C
:10C9F0000202322F47566EB1C97F02012BE3E16E6E
:10CA0000B1C9DC02012DA3E14353C300016EB1C9DA
:10CA10008D020344322A1F013506584934061F107F
:10CA200059496EB1C93F020344322F47561F0135A1
:10CA300006465634061F106EB1C7D506044455325B
:10CA40002F4420E86EB1CA1202064E4547415445B4
:10CA50004353C300016EB1C81302034142534D2D2D
:10CA6000EF6EB1C9FB06073F4E45474154454D3572
:10CA7000062DDD6EB1C9C10207444E4547415445FC
:10CA800034065F1D1F01A362ED621F10C2001DA3CB
:10CA9000E16EB1CA780204444142534D2DE26EB1B9
:10CAA000C95906083F444E45474154454D35062D6A
:10CAB000CF6EB1CA3C0202442B1F013506E362ED82
:10CAC000621F10C9008900E3E16EB1CA2702024467
:10CAD0002D3406EC66A362ED66EC64C2008200A30E
:10CAE000E432666EB1CA0402024D2BE362ED623598
:10CAF00006C90089006EB1C87F0203554D2A34165D
:10CB0000A665E6613DED62A664E6613DEB628900E3
:10CB1000ED61A665E6E43DE361ED61860049E6E48A
:10CB2000A7E4A6643DE3E4AE623264AFE46EB1CA4A
:10CB3000A30206554D2F4D4F4434068E00106865F4
:10CB4000696469636962EC622408A3E4ED621CFE17
:10CB50002006A3E42502ED6269656964301F26E2C0
:10CB6000EC644353AE62AF6432646EB1C9E7020451
:10CB700046494C4C362035308C00002706E7A03063
:10CB80001F26FA350637206EB1CAE80603533C3E2D
:10CB9000E362AE6210AF6210AEE4EDE45F200FA678
:10CBA00080A0A02709C2001DCA0135306EB1ACE4D7
:10CBB00026ED1D35306EB1CAFA0205434D4F56457C
:10CBC000E362AE6210AF6210AEE4EDE42004E680F2
:10CBD000E7A0ACE426F8353035066EB1C650020643
:10CBE000434D4F56453EAE62308B10AF6210AEE4FF
:10CBF00031AB2004E682E7A210ACE426F7353035ED
:10CC0000066EB1313F342037201F106EB1CB8C0639
:10CC100004534B4950362035308C00002708E1A0E2
:10CC200026E1301F26F820DDC9D106045343414ECA
:10CC3000362035308C00002708E1A027C6301F269B
:10CC4000F820C2C923020543454C4C2BC300026E99
:10CC5000B1CC460205434841522BC300016EB1C915
:10CC60000502053E424F4459C300036EB1CBBA06DC
:10CC70000543454C4C2D8300026EB1CC7006054334
:10CC80004841522D8300016EB1CAB60605424F4499
:10CC9000593E8300036EB1CC54020543454C4C53BE
:10CCA00058496EB1CC9A030543484152536EB1CAFC
:10CCB0004904094E414D453E4C494E4B8300036E9D
:10CCC000B1CC8C0204524F4C4CBDC101C6F7C731E8
:10CCD000C874C62AC80CCC4CC703C9D4CCA0CBE6B8
:10CCE000C801C080C9F10203504144BDC101C4BFA5
:10CCF000C2C240C9FDC080CC7E0205414C4C4F549D
:10CD0000BDC101C2E20049C080C97202012CBDC18F
:10CD100001C4BFC652C5D9C2E20049C080CC1002CE
:10CD200002432CBDC101C4BFC643C2F60049C08046
:10CD3000CACE06054E414D453E1F01E680C41F3058
:10CD4000851F106EB1CD0C06053E4E414D451F01AD
:10CD5000C660E48226FA1F106EB1CCA704052144F8
:10CD60004F4552BDC101C3ECCD39C9D4C652C080B4
:10CD7000CCC4040440494D4D1F01E682C401585AF9
:10CD80001D6EB1CD330404484F4D3F1F01E6821D97
:10CD90001F896EB1CD86040440564F431F01E682C1
:10CDA000C47E1D6EB1CD20020657495448494EA39A
:10CDB000E41F01EC62A3E1AFE4A3E1C60024015A41
:10CDC0001D6EB1CC2B0403435350BDC101C5BDC47E
:10CDD00014CCA0C9EAC2C27CC95DCA06C080CCE737
:10CDE00004033E4353BDC101C2F6002FCDCAC66243
:10CDF000C080CDA8040343533EBDC101CDCAC6C700
:10CE0000C2C2FFC2E2002FC080CA66020743532D90
:10CE10005049434BBDC101C414C6F7CA50C2E20019
:10CE20002FCDF9C703C2D1002FCDE5C080CBDF02E3
:10CE30000743532D524F4C4CBDC101C6F7C731C2F9
:10CE4000C200C32BCE4CCDF9C343CE46C703CDF9A8
:10CE5000C710C2C200C32BCE5FCDE5C343CE59C7B6
:10CE600021CDE5C080CE300203533E4434061F89F5
:10CE70001D1F896EB1CD5D02024D2ABDC101C818CA
:10CE8000CA5EC818CA5ECAFEC7AEC976CAACC08040
:10CE9000CE780206534D2F52454DBDC101C818C66C
:10CEA000F7C6F7CA9BC731CA5ECB39C703C731C9BA
:10CEB00076CA6EC826C703CA6EC826C080CD970240
:10CEC00006464D2F4D4F44BDC101C6F7C836CA9B1B
:10CED000C731CA5ECB39C826C731CA6EC826C84515
:10CEE000C731C976C8C4C281CEFCCA50C818C28135
:10CEF000CEFCC9DFC731C845CA06C826C751C080A5
:10CF0000CD7302012ABDC101CE7BC801C080CE68AD
:10CF100002042F4D4F44BDC101C6F7CE6CC703CEEE
:10CF2000C7C080CB3202012FBDC101CF16C868C077
:10CF300080CE0C02034D4F44BDC101CF16C801C0C5
:10CF400080CEC002052A2F4D4F44BDC101C6F7CE89
:10CF50007BC703CEC7C080CCB202022A2FBDC1015D
:10CF6000CF4AC868C080CDE1020528454D4954BD6F
:10CF7000C101C500C6BBC072C080CCFA0204454DD9
:10CF80004954BDC101CF6FC2F6003FC080CDC6027B
:10CF9000024352BDC101C2C20DCF6FC2C20ACF6FE0
:10CFA000C5F2C2D1003FC2F60041C080CF7D02056C
:10CFB0005350414345BDC101C5FCCF82C080CFAFB6
:10CFC0000206535041434553BDC101C5FCC826C2AA
:10CFD000C200C32BCFDEC80CCF82C343CFD6C8015B
:10CFE000C080CB6F020454595045BDC101C2C2007C
:10CFF000C32BCFFCC6DACF82C343CFF4C801C080B5
:10D00000CF03020450414745BDC101C2C20CCF82CB
:10D01000C5F2C2D1003FC5F2C2D10041C080CF5A93
:10D0200006094241434B5350414345BDC101C480B1
:10D03000C0B1C2C208C5FCC818CF6FCF6FCF6FC2D6
:10D04000C2FFC2E2003FC080CA5A040941434345BF
:10D050005054494E47BDC101C212C80CC80CC5FC92
:10D06000C94EC826C2C27EC941C969C281D0A4C204
:10D07000C20DC818C8FAC281D080C78AC801C08052
:10D08000C80CC2C208C8FAC826C2C27FC8FAC96999
:10D09000C281D0A2C80CC281D09ED02BC9DFC2747D
:10D0A000D058C5FCC818C2C204C874C8FAC281D01E
:10D0B000B7C801C274D058C80CC79BC9FDC643CFBE
:10D0C00082C9D4C274D058CE93020641434345501E
:10D0D00054BDC101C826C5F2D055C080CF6906062F
:10D0E00044552F4D4F44BDC101C836C5F2C826CBAB
:10D0F00039C6F7C826CB39C703C080D02106034400
:10D10000552ABDC101C836CAFEC801C6F7CAFEC746
:10D1100003C9FDC080CD480204484F4C44BDC10145
:10D12000C2C2FFC2E2002BC3F8C643C080CA960247
:10D13000023C23BDC101CCEBC2D1002BC080CFE5A6
:10D1400004063E4449474954BDC101C80CC2C20946
:10D15000C941C2C207C95DC9FDC2C230C9FDC08094
:10D16000D0CA020123BDC101C4E4C6BBD0E6C84594
:10D17000D148D11DC080CFC102022353BDC101D10E
:10D1800065C77AC969C29ED17FC080CF11020223D0
:10D190003EBDC101C76CC3F8CCEBC818CA06C0803D
:10D1A000CF9002045349474EBDC101C8C4C0B1C2AB
:10D1B000C22DD11DC080D141060944552E53545271
:10D1C000494E47BDC101D133D17CD191C080D0033C
:10D1D0000608442E535452494E47BDC101C836CAB1
:10D1E0009BD133D17CC845D1A8D191C080D0FE0657
:10D1F000055254595045BDC101C77AC883CA06CFEC
:10D20000C8CFEAC080D0DF060344552EBDC101D18E
:10D21000C3CFEACFB5C080D118060444552E52BD05
:10D22000C101C6F7D1C3C703D1F6C080D21A02022A
:10D23000442EBDC101D1DACFEACFB5C080D163029F
:10D2400002552EBDC101C2C200D20CC080CF440223
:10D25000012EBDC101CE6CD232C080D1F002034498
:10D260002E52BDC101C6F7D1DAC703D1F6C080D1B5
:10D27000790203552E52BDC101C6F7C2C200D1C307
:10D28000C703D1F6C080D13002022E52BDC101C603
:10D29000F7CE6CD1DAC703D1F6C080CF2602013FAA
:10D2A000BDC101C6BBD252C080D22F020744454344
:10D2B000494D414CBDC101C2C20AC4E4C652C0803E
:10D2C000D2080203484558BDC101C2C210C4E4C619
:10D2D00052C080CC62060642494E415259BDC1013E
:10D2E000C2C202C4E4C652C080D2400206534F55A7
:10D2F000524345BDC101C466C45BC080D2720207FF
:10D300002F535452494E471F01E362ED62ECE4AFE4
:10D31000E4A3E16EB1D04B040643415443482836A0
:10D3200040305E36106EB1D2EC04062943415443BE
:10D3300048334434064F5F6EB1D18E0205434154E9
:10D340004348BDC101D31FC072D331C080D1B904DD
:10D3500006285448524F571F011F3010A3C126F909
:10D3600037401F1037206EB1D2FF020541424F52A5
:10D3700054BDC101C2C2FFD357C080D2C304062826
:10D380005550504552C1612506C17A2202C0206E17
:10D39000B1D29E06055550504552BDC101C2C200D2
:10D3A000C32BD3B4C80CC6AFD385C818C643C9D4E1
:10D3B000C343D3A4C801C080D3940207434F4D5048
:10D3C000415245BDC101C845C77ACA06C6F7C8A4BF
:10D3D000CB90C7EFC281D3DCC751C080C703C80C54
:10D3E000C0B1C8E5C9EAC9D4C080D33C02044D4FDE
:10D3F0005645BDC101C77AC9FDC79BCDAFC281D417
:10D4000005CBC0C080CBE6C080D3500605504C4150
:10D410004345BDC101C77AC643CC5AC826D3F2C022
:10D4200080D1A30204574F5244BDC101C6F7D2F3C5
:10D43000C4D7C6BBD307C836C731CC15C818C82651
:10D44000C703CC30C6F7C818CA06C77AC4CBC662B1
:10D45000C4BFD412C703C80CC918C9FDCA06C4D7B3
:10D46000C676C4BFC080D40C02055041525345BD9E
:10D47000C101C6F7D2F3C4D7C6BBD307C77AC70367
:10D48000CC30C710C703C80CC918C9FDCA06C4D719
:10D49000C676C703C818CA06C080D32A06063F53FB
:10D4A0005441434B34061F405D2B0435066EB1C614
:10D4B000FC4D26015C1D7ED357D49D06053F42419D
:10D4C0005345BDC101C4E4C6BBC2C202C2C249CDFC
:10D4D000AFC094D2B4C2C2C2D357C080D424060510
:10D4E0003F50414952BDC101C8FAC094C2C2EAD3FB
:10D4F00057C080D31806053F434F4D50BDC101C4EE
:10D50000F2C6BBC094C2C2F2D357C080D4F60208A0
:10D51000434F4D50494C452CBDC101D4FCC4BFC63E
:10D5200052C5D9C2E20049C080D3BB0409434F4D64
:10D5300050494C452829BDC101C22DD518C080CF06
:10D540003403015BBDC101C5F2C4F2C652C080CD37
:10D55000F502015DBDC101C5E5C4F2C652C080D46B
:10D56000BC040A534146452D5448455245BDC101AE
:10D57000C2C240C474C5B1CA06C934C281D585C50A
:10D58000B1C2D1003DC474C080D2500405464C598C
:10D590004552BDC101C4F2C6BBC094D56DC4BFC263
:10D5A000D1003DC80CC2D10049C703C710D554C033
:10D5B000C5D536C080D544C4BFC474C2D10049C2E9
:10D5C000D1003DC080D2AC040422285329BDC10142
:10D5D000C242C080D2D604052E22285329BDC101E3
:10D5E000C242CFEAC080D58C03022E28BDC101C241
:10D5F000C229D46FCFEAC080D50F0605574F5244D9
:10D600002CBDC101D429C6AFC9D4CD00C080D5C8B6
:10D61000060650415253452CBDC101D46FC4BFC84A
:10D6200018C9D4CD00D412C080D3ED040941424FB3
:10D63000525422285329BDC101C281D648C731C2E4
:10D64000D10031C2C2FED357C25CC080D36B030687
:10D6500041424F525422BDC101D592D536D636C271
:10D66000C222D618C080D289070122BDC101D5923D
:10D67000D536D5CDC274D65FD4DF03025322BDC1E7
:10D6800001C274D66ED66903022E22BDC101D592A5
:10D69000D536D5DDC274D65FD54206044D53472238
:10D6A000BDC101C4BFC826CD0EC3CECD0EC2D100B0
:10D6B00025C274D65FD61102054445505448BDC1F9
:10D6C00001C62AC597C826CA06C9F4C080D68804F0
:10D6D00005384249543FBDC101C2C280C2B5008075
:10D6E000CDAFC080D5520408494E49544D4F4445F2
:10D6F000BDC101C2C230C2D10033C080D62C0408E3
:10D700003F494C4C4547414CBDC101C0B1C2C2C1AB
:10D71000D357C080D6FF0408494E44455852454768
:10D72000BDC101C2C220C2D10033C826C9DFC2C2F6
:10D7300003C818C934D708C2C205C994C969C080D2
:10D74000D37E0407524547434F4445BDC101C2C281
:10D750005AC818C94EC5FCC95DCA06C6F7D5CD1052
:10D760002C414244585955530002040610204040B1
:10D77000C9F4C836C703CC30C281D782C9FDC6AF51
:10D78000C080C2C2C1D357D52C04052B4D4F444590
:10D79000BDC101C430C9FDC80CC2B500F0C95DC22D
:10D7A000C250C908C094C2C20FC95DC080D25E0415
:10D7B00005504352454CBDC101C826C4BFC2C20278
:10D7C000C9FDCA06C80CD6D6C281D7DAC826C2B5EA
:10D7D00000FEC95DCD23CD23C080C9DFC826CD237F
:10D7E000CD0EC080D6E70406434F46534554BDC115
:10D7F00001C818C29ED808C2B500F0C95DC2C204F3
:10D80000C969CD23C801C080C818C2C2F0C2C21005
:10D81000CDAFC818C2C210C95DC8D1C95DC281D818
:10D8200033C2C260C95DC826C2C21FC95DC969CD05
:10D8300023C080C818D6D6C281D847C2B500FEC959
:10D840005DCD23CD23C080CD23CD0EC080D64F0427
:10D8500007494E4445584544BDC101C80CC2B500F6
:10D860008FC95DC80CC2B50089C8FAC281D875C815
:10D8700001D7EEC080C80CC2B5008DC8FAC281D8ED
:10D8800087C801D7B6C080C80CC2B5008FC8FAC21D
:10D8900081D89BC801CD23CD0EC080C801CD23C047
:10D8A00080D78A0405494D4D4544BDC101C6AFC965
:10D8B000DFCE6CD708C281D8BDCD0EC080CD23C0CD
:10D8C00080D6B80405444F534558BDC0F0BDC0D7FD
:10D8D000C6AFCD23D6F0C080D5D70406444F5357EA
:10D8E0004932BDC0F0BDC0D7C6BBCD0ED6F0C0809A
:10D8F000D4690406444F43574149BDC0F0BDC0D769
:10D90000C430D708C6AFCD23CD23D6F0C080D5FB19
:10D91000040647454E414452BDC101C430D6F0C84B
:10D920000CC2C200C8FAC281D930C801D8AAC080CE
:10D93000C80CC2C210C8FAC281D943C801C801CDFF
:10D9400023C080C80CC2C220C8FAC281D956C801FF
:10D95000C801D858C080C80CC2C230C8FAC281D928
:10D9600069C801C801CD0EC080D708C080D8F304B3
:10D9700005444F4E4547BDC0F0BDC0D7C6DAD7906D
:10D98000CD23D918C080D6D00405444F4C4459BD8E
:10D99000C0F0BDC0D7C6E9D790CD0ED918C080D988
:10D9A000700405444F455847BDC0F0BDC0D7C6AF51
:10D9B000CD23C826C2C204C994C9FDCD23D6F0C068
:10D9C00080D9890405444F4C4541BDC0F0BDC0D746
:10D9D000C430C2C220CA06D708C6AFCD23D858D695
:10D9E000F0C080D9C40405444F424551BDC0F0BDCC
:10D9F000C0D7C6AFC826C4BFC2C202C9FDCA06D6B8
:10DA0000F0C80CD6D6C281DA11C826CD23CD23C0EA
:10DA100080C2C210CD23C826CD23C2C202CA06CD01
:10DA20000EC080D9E60405444F425241BDC0F0BD4E
:10DA3000C0D7C6BBC826C4BFC2C202C9FDCA06D66B
:10DA4000F0C80CD6D6C281DA53C826C9CACD23CDB8
:10DA500023C080C826CD23C9DFCD0EC080D5E90400
:10DA600004444F2D29BDC0F0BDC0D7C6AFD720C0DC
:10DA700080D7B008034E4547BDD9794000D8A408E7
:10DA800003434F4DBDD9794300D74308034C53524C
:10DA9000BDD9794400D1D10803524F52BDD979463E
:10DAA00000D69B0803415352BDD9794700DA80085C
:10DAB0000341534CBDD9794800D8DB08034C534C83
:10DAC000BDD9794800DA600803524F4CBDD9794975
:10DAD00000D9A20803444543BDD9794A00D7E708D5
:10DAE00003494E43BDD9794C00D8C408035453545C
:10DAF000BDD9794D00DAC808034A4D50BDD9794ED9
:10DB000000D9110803434C52BDD9794F00D56208A2
:10DB10000453554241BDD9798001DB100804434DBF
:10DB20005041BDD9798101DB1D080453424341BDF9
:10DB3000D9798201DB04080453554244BDD9798365
:10DB400002DAE00804414E4441BDD9798401DAEC9F
:10DB5000080442495441BDD9798501DA2608034CAD
:10DB60004441BDD9798601D8500803535441BDD9E9
:10DB7000798700D7170804454F5241BDD9798801EC
:10DB8000DB44080441444341BDD9798901DB2A08BB
:10DB9000034F5241BDD9798A01DB830804414444D3
:10DBA00041BDD9798B01DB9C0804434D5058BDD948
:10DBB000798C02DB5E08034A5352BDD9798D00DBB4
:10DBC0005108034C4458BDD9798E02D67B080353C3
:10DBD0005458BDD9798F00DB76080453554242BDB5
:10DBE000D979C001DBDA0804434D5042BDD979C16F
:10DBF00001DBE7080453424342BDD979C201DAA4EC
:10DC0000080441444444BDD979C302DAB008044150
:10DC10004E4442BDD979C401DAF80804424954425D
:10DC2000BDD979C501DA8C08034C4442BDD979C607
:10DC300001DB370803535442BDD979C700DB900894
:10DC400004454F5242BDD979C801DC0E0804414455
:10DC50004342BDD979C901DBF408034F5242BDD913
:10DC600079CA01DC4D080441444442BDD979CB0155
:10DC7000DABC08034C4444BDD979CC02DC5A080311
:10DC8000535444BDD979CD00DA9808034C4455BDAE
:10DC9000D979CE02DC660803535455BDD979CF003B
:10DCA000DC340804434D5044BDD992108302DC405B
:10DCB0000804434D5059BDD992108C02DBB60803BD
:10DCC0004C4459BDD992108E02DB6A080353545953
:10DCD000BDD992108F00DC1B08034C4453BDD99270
:10DCE00010CE02DC010803535453BDD99210CF006B
:10DCF000DCE60804434D5055BDD992118302DC97F0
:10DD00000804434D5053BDD992118C02DA740804B3
:10DD10004C454158BDD9CD30DAD408044C45415961
:10DD2000BDD9CD31DC8B08044C454153BDD9CD3232
:10DD3000DCD908044C454155BDD9CD33DC7F0803FF
:10DD4000455847BDD9AB1EDD0F0803544652BDD917
:10DD5000AB1FDCBF08034E4F50BDD8CD12DD01080C
:10DD60000453594E43BDD8CD13DD27080344414128
:10DD7000BDD8CD19DBCE0803534558BDD8CD1DDC29
:10DD8000730803525453BDD8CD39DCCC080341424B
:10DD900058BDD8CD3ADD4A0803525449BDD8CD3BD1
:10DDA000DCF308034D554CBDD8CD3DDD8D08035344
:10DDB0005749BDD8CD3FDD9808044E454741BDD8F1
:10DDC000CD40DCB10804434F4D41BDD8CD43DD1BF0
:10DDD00008044C535241BDD8CD44DBC20804524F15
:10DDE0005241BDD8CD46DBA9080441535241BDD8AC
:10DDF000CD47DDE9080441534C41BDD8CD48DDD1C4
:10DE000008044C534C41BDD8CD48DDDD0804524FC9
:10DE10004C41BDD8CD49DD33080444454341BDD80C
:10DE2000CD4ADCA30804494E4341BDD8CD4CDE1990
:10DE3000080454535441BDD8CD4DDDC50804434CAE
:10DE40005241BDD8CD4FDD6C08044E454742BDD888
:10DE5000CD50DD3F0804434F4D42BDD8CD53DD8248
:10DE600008044C535242BDD8CD54DE310804524F01
:10DE70005242BDD8CD56DD60080441535242BDD850
:10DE8000CD57DE79080441534C42BDD8CD58DE61F0
:10DE900008044C534C42BDD8CD58DE6D0804524F97
:10DEA0004C42BDD8CD59DE0D080444454342BDD88F
:10DEB000CD5ADDAE0804494E4342BDD8CD5CDEA943
:10DEC000080454535442BDD8CD5DDE550804434C7C
:10DED0005242BDD8CD5FDECD080453574932BDD87C
:10DEE000E5103FDE85080453574933BDD8E5113F9F
:10DEF000DDA308044F524343BDD8FD1ADDF50805E4
:10DF0000414E444343BDD8FD1CDE9D080450534898
:10DF100053BDD8FD34DF0C080450554C53BDD8FD1B
:10DF200035DE49080450534855BDD8FD36DF240876
:10DF30000450554C55BDD8FD37DE3D0804435741CC
:10DF400049BDD8FD3CDDB90803425241BDDA2F205E
:10DF500016DF300803425352BDDA2F8D17DD550806
:10DF60000342524EBDD9EF21DF480803424849BD64
:10DF7000D9EF22DE910803424C53BDD9EF23DF765F
:10DF80000803424853BDD9EF24DEC10803424C4F79
:10DF9000BDD9EF25DF810803424343BDD9EF24DF1C
:10DFA000970803424353BDD9EF25DC280803424EAE
:10DFB00045BDD9EF26DF6B0803424551BDD9EF2798
:10DFC000DFA20803425643BDD9EF28DFC30803424E
:10DFD0005653BDD9EF29DF18080342504CBDD9EF85
:10DFE0002ADFB80803424D49BDD9EF2BDFAD080346
:10DFF000424745BDD9EF2CDFD90803424C54BDD967
:10E00000EF2DDFFA0803424754BDD9EF2EDFEF08AA
:10E0100003424C45BDD9EF2FDED90803553E3FBD25
:10E02000C13F23E01B0803553C3FBDC13F24DF3CFB
:10E03000080343533FBDC13F24DE2508023D3FBDD9
:10E04000C13F26E010080356533FBDC13F28DF60A3
:10E050000803303C3FBDC13F2ADF5408023C3FBDAE
:10E06000C13F2CDFCE08023E3FBDC13F2FE0660816
:10E07000024E4FBDC101C2C201C976C080E0700826
:10E080000144BDC13F00DFE4080158BDC13F01DDCF
:10E0900077080159BDC13F02E03C080155BDC13FB1
:10E0A00003E031080153BDC13F04DE0108025043C3
:10E0B000BDC13F05E026080141BDC13F08E0510850
:10E0C0000142BDC13F09E09B0803434352BDC13F2C
:10E0D0000AE08908024450BDC13F0BE0B70802299D
:10E0E0002BBDDA6880DEFF0803292B2BBDDA68819F
:10E0F000E0DE08022D29BDDA6882E0E808032D2D54
:10E1000029BDDA6883E092080129BDDA6884E080DD
:10E1100008024229BDDA6885E0C908024129BDDA52
:10E120006886E0AD08024429BDDA688BE05C040C27
:10E13000504152454E54484553495A45BDC101D5F9
:10E14000DD022028C0C5D5DD022920C080DF8C0279
:10E15000022E53BDC101D4A4E13CCFB5D6BEC0B19F
:10E16000D6BEC80CC874D252C9DFC80CC29EE162C8
:10E17000C801C080E1080603552E53BDC101D4A4D7
:10E18000E13CCFB5D6BEC0B1D6BEC80CC874D24330
:10E19000C9DFC80CC29EE18AC801C080E1500604F4
:10E1A0002E4D5347BDC101C2C2FDC818C934C2813A
:10E1B000E1C0C9D4C0B1CFB5C423C6DACFEAC080AC
:10E1C000C3CEC274E1CACC4CC6BBC80CC6BBC281AC
:10E1D000E1DCC77AC6BBC8FAC281E1C6CC4CCC4CE4
:10E1E000C6DACFEAC7EFC0B1E13CD5DD0A4D6573B1
:10E1F00073616765202320C2C200D28CC080E046D4
:10E2000004032E4F4BBDC101D4C2D4A4C4A5C2C2C5
:10E2100001C95DC281E22FC4F2C6BBC281E229D529
:10E22000DD03206F6BC274E22FD5DD03204F4BCF8F
:10E2300093C4A5C2C202C95DC281E242E153C27465
:10E24000E24FC4A5C2C204C95DC281E24FE17BC4F2
:10E25000A5C2C208C95DC0B1C2C20AC4E4C6BBC877
:10E26000FAC094C4E4C6BBC80CD2B4C2C200D28CFB
:10E27000C4E4C652D5DD022920C080E0F302055176
:10E2800055455259BDC101C58CC80CC2D1003BC512
:10E29000CDD0D1C2D10039C2C200C4D7C652CFB589
:10E2A000C080E0C00206524546494C4CBDC101C584
:10E2B0008CC466C8FAC281E2C1E205E284C5E5C049
:10E2C00080C5F2C080E1770605574F52443EBDC17C
:10E2D00001C80CD429C80CC6AFC281E2E1C868C02D
:10E2E00080C801C6F7E2ACC29EE2F0C2C2F0D357CA
:10E2F000C703C274E2D1E2010406544852454144C6
:10E300001F01A6841F8958E88658E801C40F58CB1E
:10E31000031D6EB1E0D4040846494E444E414D45BC
:10E32000BDC101C80CC6AFC9D4C2C220C883C77A58
:10E33000D39AC818E300C274E33CCCBCC6BBC80C7B
:10E34000C281E34EC80CC79BCB90C29EE33AC8681B
:10E35000C868C080E125040846494E44574F5244DE
:10E36000BDC101C710C80CC281E3B3C5F2C826C243
:10E3700074E379CCBCCC76C6BBC73EC79BC868CD1E
:10E380009CCC30C868C703C818CA06C6F7C281E368
:10E3900095C868C80CC80CCD8BC731C95DC29EE357
:10E3A00073C801C80CC281E3B3C868C80CCD39C8B2
:10E3B00026CD78C75FC080E357020446494E44BD6E
:10E3C000C101C80CE320C80CC0B1C408C581C8187D
:10E3D000CA06E360C080E27E020F534541524348C3
:10E3E0002D574F52444C495354BDC101C6F7C4BFC9
:10E3F000D412C4BFC80CE320C703C818C281E413F9
:10E40000C4BFCD39C836C643C2C201E360C80CC020
:10E4100094C5F2C801C868C080DEB5040821534520
:10E420004354494F4EBDC101C4BFC2D10035C08065
:10E43000E2F904044C49542CBDC101C80CC2B5001A
:10E4400080C2C280CDAFC281E454D536C2B5CD0EF4
:10E45000E425C080D536C2C2CD23E425C080E111B9
:10E4600003074C49544552414CBDC101C4F2C6BBDF
:10E47000C0B1E438C080E12F0308324C4954455202
:10E48000414CBDC101C4F2C6BBC0B1C826E438E4EA
:10E4900038C080E43306033E4F4BBDC101C2D100FA
:10E4A00045C080E19F060644494749543EBDC1012D
:10E4B000C6F7C731C2C230CA06C2C209C818C934B9
:10E4C000C281E4D4C2C210C818C934C281E4E6C211
:10E4D000C207CA06C80CC4E4C6BBC934C281E4E69C
:10E4E000C5E5C751C080C801C703C5F2C080E005BB
:10E4F00002073E4E554D424552BDC101C80CC0B148
:10E50000C818C6AFE4ADC281E523C6F7C7AEC4E400
:10E51000C6BBD102C703CAEBC7AEC2C201D307C292
:10E5200074E4FCC801C080E2C8040B4D494E555349
:10E530002D5349474E3FBDC101C80CC281E555C8A6
:10E5400018C6AFC2C22DC8FAC281E555C2C201D3F6
:10E5500007C5E5C080C5F2C080E2A5040A3E444F6D
:10E56000544E554D424552BDC101C5F2C80CC7AE0F
:10E57000C9DFC80CC29EE583C818C6AFC2C22EC888
:10E58000FAC969CE6CC094C9D4E4F9C80CC2D100F0
:10E5900047C80CC0B1C818C6AFC2C22EC908C094C3
:10E5A000C80CC2D10047C2C201D307E4F9C080E45D
:10E5B000790608444E554D4245523FBDC101E536EE
:10E5C000C6F7E567C868C281E5D0C5F2C751C0800B
:10E5D000C703CAACC5E5C080E41C04044556414CE1
:10E5E000BDC101E3BFC7EFC281E5FFC4F2C6BBC92D
:10E5F0005DC8C4C281E5FBCD0EC080C072C080C8BA
:10E6000001C4CBC6C7E5BBC281E61BC4B2C281E66A
:10E6100015E482C080C801E469C080C2C2C3D35778
:10E62000E0FD04074F4B2D4C4F4F50BDC101C59726
:10E63000C5A2CC76CC76C652C5FCE2CEE5E0C2746B
:10E64000E638DEF3020451554954BDC101C61ED55A
:10E6500044E284C2B5E62BD342CF93D6F0C80CC9AE
:10E6600086C29EE66DC4CBC6C7CFEACFB5E1A4CFC4
:10E67000B5C60BC274E64FE3BA02055448524F5771
:10E6800010830000260435066EB11083FFC82605EE
:10E6900035067EE64A7ED357DEE60409494E5445E8
:10E6A0005250524554BDC101C2D10039C2D1003BC4
:10E6B000C2C200C4D7C652C274E6BDE5E0C5FCD4F0
:10E6C00029C80CC6AFC29EE6BBC801C080E52A02BD
:10E6D000084556414C55415445BDC101D2F3C710C0
:10E6E000C4D7C6BBC6F7C2B5E6A5D342C703C4D7D5
:10E6F000C652C721C2D10039C2D1003BE680C080DA
:10E70000E6D004063F464F554E44BDC101C094C2F9
:10E71000C2F3D357E5DB020127BDC101C5FCE2CE40
:10E72000E3BFE70AC080E3D9020443484152BDC1B8
:10E7300001C5FCE2CEC9D4C6AFC080E64503065B86
:10E74000434841525DBDC101E72EE469C080E11B31
:10E7500007044354524CBDC101E72EC2C21FC95D1C
:10E76000E469C080E317030128BDC101C2C229D4F6
:10E770006FC76CC4D7C6BBC45BC934C094C4D7C60A
:10E78000BBC281E794D2F3C9FDC9DFC6AFC2C229BB
:10E79000C8FAC094E2ACC29EE76CC080E4A6030154
:10E7A0005CBDC101C45BC4D7C652C080E0A40206F0
:10E7B000435245415445BDC101C5FCE2CEE320C8EA
:10E7C0000CC6F7C4BFC2C203C731C281E7D0CC4C6C
:10E7D000CD00C80CC4BFC818C6AFC9D4CBE6C6525A
:10E7E000C2C200C703C281E807CF93D5DD0B5265D3
:10E7F000646566696E696E6720C4BFC6DACFEACF0A
:10E80000B5C2B50080C969C4BFC9DFC643C4BFC8AB
:10E810000CE300C80CC6BBC4BFCCBCC652C4BFC846
:10E8200026C652C4BFC9DFC581C6AFC818C6AFC9A6
:10E8300069C826C643C4BFC2D10029C6AFC9D4CD5A
:10E8400000C5F2DBBAC113E425C080E7AF0404437E
:10E85000524541BDC101C4BFD412C4BFC274E7BD9B
:10E86000E496030752454355525345BDC101C3ECDD
:10E87000CD39D518C080E55C060448494445BDC182
:10E8800001C3ECC80CC6AFC2B50080C969C826C6B2
:10E8900043C080E879060652455645414CBDC1014A
:10E8A000C3ECC80CC6AFC2C27FC95DC826C643C090
:10E8B00080E7290209494D4D454449415445BDC1B0
:10E8C00001C3ECC9DFC2C201C818C6AFC969C826F6
:10E8D000C643C080E71703035B275DBDC101E7198D
:10E8E000E469C080E69B03095B434F4D50494C45AA
:10E8F0005DBDC101E719D518C080E5B20308504FCE
:10E900005354504F4E45BDC101C5FCE2CEE3BFC8D4
:10E910000CE70AC8C4C281E925D536D536E425C539
:10E92000D9C2E20035D518C080E73E060553544FE2
:10E93000503FBDC101C1FDC80CC0B1C801C212C564
:10E94000FCC818C8FAC281E94DC801C212C2C21B74
:10E95000C818C8FAC2C2E4C95DE680C5FCC908C0CF
:10E9600080E8FD02013ABDC101E7B6C0FED554E81A
:10E970007EC5E5C5F2CDE5C080E76702073A4E4F98
:10E980004E414D45BDC101C4BFC2B5C0FECC68DB20
:10E99000BAD554C5F2C5F2CDE5E425C080E75102F1
:10E9A00008434F4E5354414E54BDC101E7B6C80C05
:10E9B000C2B50080C2C280CDAFC281E9C3C151CD12
:10E9C0000EC080C13CCD23C080E97C020856415274
:10E9D0004941424C45BDC101E7B6C127C5D9CD006B
:10E9E000C080E461020556414C5545BDC101E7B602
:10E9F000C165CD0EC080E9640408444F53545249A8
:10EA00004E47BDC0F0BDC0D7C9D4C6DAC080E8E764
:10EA10000606535452494E47BDC101E7B6EA02C249
:10EA2000B500FFC95DC2C201C893C80CCD23C5F2B1
:10EA3000CD23CD00C080E8960405544F242829BD7D
:10EA4000C101C22DC80CC9D4C6F7C6AFC8A4C7033C
:10EA5000D412C080E84E04062B544F242829BDC18F
:10EA600001C22DC80CC9D4C6F7C6AFC731C6AFCADC
:10EA700006C8A4C731C6DAC9FDC826C80CC703C674
:10EA800089D3F2C080E8B40407494E4352242829B0
:10EA9000BDC101C22DC80CC9D4C6F7C6AFC731C6A7
:10EAA000AFC941C281EAB8C731C6DAC9FDC643C29F
:10EAB000C201C703C689C080C801C751C080000019
:10EAC000EA02EA3FEA5EEA90EAC0C165C2D1C2E268
:10EAD000C2F6E86304075046584C495354BDC1017F
:10EAE000C3DDCD0EC4BFC2D10027C080E9CC040372
:10EAF000504658BDC101E719CC68C80CCC76C6BBDE
:10EB0000CC92C3DDC77AC6BBC8FAC281EB20C86805
:10EB1000CC4CC845C9FDC6BBD592CD0ECD0EC0802C
:10EB2000CC76C6BBC80CC29EEB04C2C2E0D357EA87
:10EB3000390302544FBDC101C2C200EAF3C080E9EB
:10EB40002C07032B544FBDC101C2C202EAF3C0809F
:10EB5000E8D70704494E4352BDC101C2C204EAF3DB
:10EB6000C080EAD506095641524941424C4553BD41
:10EB7000C101E7B6CCA0CD00C1A4C080EB32040532
:10EB80003C46555345BDC101D4FCC703C6E9C4BFCB
:10EB9000CC76C6BBC8FAC440C4BFC9DFC934C95D9E
:10EBA000C281EBB3C2C2FECD00CC4CC6E9CD0EC2D1
:10EBB00074EBB9C6E9CD0ECC4CC6F7C080E623078E
:10EBC000053F45584954BDC101EB85C8D1C094C02B
:10EBD000B1C080EB5303024946BDC101EB85C8D1EA
:10EBE000C281C29EC4BFC80CCD0EC2C201CDE5C059
:10EBF00080EBD603054148454144BDC101D536C22D
:10EC000074C274EBE4EB4203055748494C45BDC15F
:10EC100001EBD9C2C201CE38C080E9E503045448F3
:10EC2000454EBDC101D4FCCDF9C2C201D4E5C4BF7B
:10EC3000C826C652E425C080E9F903054245474984
:10EC40004EBDC101D4FCC4BFC2C202CDE5E425C0A3
:10EC500080EC080305554E54494CBDC101CDF9C2A5
:10EC6000C202D4E5EB85C8D1C281C29ECD0EC08060
:10EC7000EC540305414741494EBDC101CDF9C2C223
:10EC800002D4E5D536C274CD0EC080E70303044537
:10EC90004C5345BDC101EBFAC2C201CE38EC22C0D3
:10ECA00080EB7F0306524550454154BDC101EC79CC
:10ECB000EC22C080ECA40302444FBDC101D536C391
:10ECC0000DC4BFC80CCD0EC2C203CDE5C080EBF4AD
:10ECD00003033F444FBDC101D536C32BC274ECC101
:10ECE000EAEF03044C4F4F50BDC101CDF9C2C2033E
:10ECF000D4E5D536C343C80CCC4CCD0EC4BFC82612
:10ED0000C652C080EC8E03052B4C4F4F50BDC10145
:10ED1000CDF9C2C203D4E5D536C368C274ECF6ECB3
:10ED20007303013BBDC101CDF9C5F2D4E5C281ED4C
:10ED300033E89DD536C080D544C080EBC007017D47
:10ED4000BDC101D536C080EC22C080E79F070252CA
:10ED500045BDC101D536C274C3ECCD39CC68CD0EEA
:10ED6000C080ED2207033F5245BDC101EB85C8D1EC
:10ED7000C29EC281C274ED58EB65070352457DBD4A
:10ED8000C101ED51EC22C080E67A0406444F4F4E9B
:10ED90004C59BDC0F0BDC0D7C6AFC581C9DFC77A69
:10EDA000C643C9DFC80CC2D1002DC643C080E4F100
:10EDB0000405444F564F43BDC0F0BDC0D7C6AFC4D5
:10EDC00008C643C080ECD102044F4E4C59BDED95AE
:10EDD000000000ECB70005464F525448BDEDBA02A2
:10EDE000EDD0E9A00006494E53494445BDEDBA04B3
:10EDF000EDDFED3E00054558545241BDEDBA06ED3C
:10EE0000EFEA570009415353454D424C4552BDED81
:10EE1000BA08EDFEED070208574F52444C495354CF
:10EE2000BDC101C4BFC3BFC80CC6AFC2C202C9FDC9
:10EE3000CD23CD0EC80CC2D10023C6AFC080EE17C3
:10EE40000004414C534FBDC101C572C408C934C848
:10EE5000D1C2C2CFC95DE680C408C6AFC2C2FFC27C
:10EE6000E2002DC408C643C080EDB10008505245F1
:10EE700056494F5553BDC101C408C9D4C581C934D1
:10EE8000C8D1C2C2CEC95DE680C2F6002DC080EDF9
:10EE90008B000B444546494E4954494F4E53BDC122
:10EEA00001C408C6AFC581C643C080EDF5000B475D
:10EEB00045542D43555252454E54BDC101C581C6DE
:10EEC000AFC080EA88000B5345542D43555252453C
:10EED0004E54BDC101C581C643C080ED4E040756E6
:10EEE0004F434E414D45BDC101C3BFC77AC6AFC8F0
:10EEF000FAC281EF04C868CC92CD4EC6DAC2C21FF6
:10EF0000C95DC080C9D4C6BBC80CC29EEEEBC76C3D
:10EF1000D5CD013FC080EC1D06042E564F43BDC128
:10EF200001EEE6CFEAC080EE4100054F5244455263
:10EF3000BDC101E13CC408C581C818CA06C2C200EF
:10EF4000C30DEF4EC6DAEF1ECFB5C343EF44D5DD98
:10EF5000023A20C6AFEF1EC080EDD60005465245EE
:10EF60005348BDC101EDCDEDFBEE46EDDCEE46C0F4
:10EF700080ECE3060A564F434142554C415259BD7D
:10EF8000C101E7B6EE20C801EDB7C080EF2A040743
:10EF900021544F504E4641BDC101C5F2C2C223C2E9
:10EFA000C203C30DEFB6C38EC6BBC560CA06C8B5E3
:10EFB000C5D9C368EFA6C560C9FDC2D10029C0800C
:10EFC000EEC604074355525441494CBDC101C6F732
:10EFD000C274EFDAC731C9FDC6BBC80CC79BCDAF41
:10EFE000C29EEFD4C751C080EF74040728464F5229
:10EFF000474554BDC101C4BFC2C223C2C203C30D31
:10F00000F015C38EC6BBC2C2FDEFCBC38EC652C5C0
:10F01000D9C368F002C3BFC2C201EFCBC2D1002383
:10F02000C3CEC2C202EFCBC2D10025C3DDC2C2FE35
:10F03000EFCBC2D10027CA06CD00EF97C080EE6C9F
:10F040000206464F52474554BDC101C5FCE2CEC63B
:10F05000DAC581C6AFE3E9E70ACD4EC80CCCBCC81F
:10F0600026CD8BC2C202C95DCA06C4BFC818C93446
:10F07000C2C2F1C95DE680EFF3C080EEDE06065243
:10F08000454D4F5645BDC101C3ECC6AFC2B500806A
:10F09000C95DC0B1E89DC3ECC80CC6DACFEACFB5F4
:10F0A000C274F05BF07E0408444F4D41524B455210
:10F0B000BDC0F0BDC0D7C80CC6BBEFF3CC4CC6DAA0
:10F0C000C80CC2D1002DC581C818CA06C9D4D3F254
:10F0D000C080EE0402064D41524B4552BDC101C4F1
:10F0E000BFE7B6F0B0CD0EC408C80CCD23C4BFC571
:10F0F00081C408CA06C9D4C80CCD00D3F2C080EFC1
:10F100008F0604414E4557BDC101C4D7C6BBC6F7E3
:10F11000C5FCD429C80CC6AFC8D1C2C2E0C95DE6DF
:10F1200080E3BFC918C95DC7EFC281F145C80CC9EA
:10F13000D4C6BBCC92C2B5F0B0C8FAC95DC7EFC2A5
:10F1400081F145C072C703C4D7C652F0DCC080EE5F
:10F15000AE04062148494D454DBDC101C2B5F80078
:10F16000C2D10043C2B50800C2E20043C49AC6BB84
:10F17000C80CC986C49AC652C49AC6BBC818C49AD9
:10F18000C652C986C908C49AC2B58000C8FAC969FE
:10F19000C281F164C080EA110206554E55534544C0
:10F1A000BDC101C49AC2C220CA06C4BFCA06C0807B
:10F1B000EDE50604434F4C444F1F8B10CE017E35C6
:10F1C00006CE01FEBDC101C560C2C200C2C267CB8E
:10F1D000C0F159EF97C2C200C2D1002FD56DC8014E
:10F1E000EF62EE9EC2B5C1D1C500C652C2C27FC198
:10F1F000EACF93C2C200E1A4CF93D5DD1F436F7065
:10F20000797269676874202863292032303035208C
:10F2100048434320466F7274682D6767CF93D5DDEE
:10F220001D53797374656D303920706F727420626C
:10F23000792048616E7320487565626E6572CF9360
:10F24000C49AC2C20AC9AEC2C209D28CD5DD072097
:10F250006B422052414DCF93CF93E64AEFEB040629
:10F2600028444F45533EBDC101C703CD63C080F262
:10F270005F0305444F45533EBDC101CDF9C5F2C8FA
:10F2800018D4E5CDE5D536F266C2B5C0D7DBBAE411
:10F2900025C080ED650204434F4445BDC101E7B67A
:10F2A000C2C2FDCD00EE0EE87EC5E5C2C205CDE5C9
:10F2B000C080F19903053B434F4445BDC101CDF9E1
:10F2C000C5F2D4E5C2C205CDE5D536F266EE0ED55F
:10F2D00044C080ED7B0605444F45523ABDC101E96B
:10F2E00066C0EDC2B5C0D7DBBAC080EE9206084456
:10F2F0004F4552434F4445BDC101F29BC2C203CDAD
:10F3000000C0EDC080F1020808454E442D434F4433
:10F3100045BDC101CDF9C2C205D4E5C281F321E8E2
:10F320009DEE75EE46C080F2960607215645435481
:10F330004F52BDC101C9D4C652C080EFC3060645B5
:10F340004E41424C45BDC101C2C27EC826C643C023
:10F3500080EF5C060744495341424C45BDC101C2A0
:10F36000C23BC826C643C080F30806044D414E592F
:10F37000BDC101C4D7C6BBE932C95DC4D7C652C03E
:10F3800080F041060554494D4553BDC101C44FC9E4
:10F39000D4C6F7C2C200C2D10037C731C8FAE932B9
:10F3A000C969C281F3AAC751C080C703C2D100375F
:10F3B000C2C200C4D7C652C080F36B040B574F5271
:10F3C00044534B4950504552BDC101C826C274F345
:10F3D000D3CCBCC6BBC80CC281F3E5C77ACD9CC8F0
:10F3E000FAC281F3D1C868C080F384040628574F5D
:10F3F000524453BDC101D56DC662C474C2C224C992
:10F40000FDC80CC2C220CA06C2C203C818C2C220AC
:10F41000CBC0C77AC30DF42AC38EC474C6C7C072EA
:10F42000C38EC652C5D9C368F418CF93C2C200C6F2
:10F43000F7C5F2C2C2FFC79BC30DF466C38EC6BB3D
:10F44000C281F460C818C38EC6BBC560CA06C93481
:10F45000C281F460C76CC38EC6BBC560CA06C38ECA
:10F46000C5D9C368F43CC868CE6CE932C969C281A9
:10F47000F483C801C76CCF93C703E13CC2C200D27A
:10F480008CC080C2C23CC480C934C281F490CF9386
:10F49000C703C9D4C6F7C80CC6BBC80CC6DAC80CAB
:10F4A000C2C220C94EC281F4AFC5FCC274F4B7C257
:10F4B000C21FC95DC2C27ECF82CFEACFB5CCBCC469
:10F4C00074C6C7C072C826C652C274F431F2B50001
:10F4D00005574F524453BDC101C408C6AFC2B5F36E
:10F4E000C8F3F3C080F33E0608414C4C574F5244DA
:10F4F00053BDC101C2B5C6BBC2B5C072F3F3C08073
:10F50000EC3B0404582E5221BDC101C2B500FFCE10
:10F510006CD1C3C868C474C643C080F50304042E0C
:10F52000414452BDC101C474C6AFC9EAD276C0809D
:10F53000F0A704052E42595445BDC101C474C6AF9D
:10F54000D28CC080EF1904042E415343BDC101C8C1
:10F550000CC2C27FC94EC95DC5FCC893CF82C080B2
:10F56000F2D6020444554D50BDC101F508C4E4C6AD
:10F57000BBC2C210C883C80CC2C206C94EC281F544
:10F5800083C9EAC6F7C818C9FDC826C80CCF93F5C9
:10F5900023CFB5C731C2C200C30DF5ACC80CC38EB2
:10F5A000C9FDC6AFF539CFB5C343F59CD5DD017CA8
:10F5B000C731C2C200C30DF5C1C6DAF54CC343F56D
:10F5C000B9D5DD027C20C77AC826CA06C731C9343E
:10F5D000E932C969C281F58BC76CC751C080F32A73
:10F5E00004054346413F3FBDC101C2B50300C818F1
:10F5F000C934C818C560C4BFCDAFC95DC826C9DF4E
:10F60000C80CC6AFC2C221C2C27FCDAFC95DC95D41
:10F61000C80CC0B1C2C201C6F7C9DFC703C818C64B
:10F62000AFC77AC8FAC281F62FC76CC918C080C2AA
:10F63000C221C2C27FCDAFC281F647C9D4C5FCC8C2
:10F6400018C95DC281F617C76CC5F2C080EDC80449
:10F65000044346413FBDC101C80CF5E7C95DC80C74
:10F66000C0B1CD4EC3BFC6AFC818CD9CC94EC8D11E
:10F67000C95DC80CC0B1CCBCC6BBC80CC29EF68468
:10F68000C9DFC080C80CC6AFC2C200C2C220CDAFA5
:10F69000C281F69ACD39F5E7C080C801C5F2C080B5
:10F6A000F35404052E48454144BDC101C80CD5CDD5
:10F6B0000620202D2D2020C710C73ECFEACD4EC6F4
:10F6C000DACFEAC73ECFEAC80CC9D4C6BBCC92C8D1
:10F6D0000CF655C281F6E7C80CD5DD05646F65727E
:10F6E00020CD4EC6DACFEAC801C721CFEACD4ECD34
:10F6F0009CEF1ED5DD0520576F7264C080F51E0497
:10F70000062E544F4B454EBDC101C818C2C201C997
:10F710005DC9EAC9EAC2C204C9FDCFC8CD4EC6DA86
:10F72000CFEAC080F70004054445434F4DBDC101F9
:10F73000CF93C80CF523D5DD023A20C80CC6DAC831
:10F740000CF539CFB5F54CCFB5C6AFC80CF539CFF0
:10F75000B5F54CCFB5C80CC6BBF523C5FCC818C25F
:10F76000C201C95DC281F76DC2C20EC9FDCF82CF91
:10F77000B5C80CF655C281F781C80CF6A9C9D4C02A
:10F7800080C80CC6BBF655C281F7A5C80CC6BBF72E
:10F7900007C9D4C80CF655C094C80CC6BBF655C0F2
:10F7A00094C9D4C080C9D4C080F4E806044D534540
:10F7B00045BDC101F508F72DE932C281F7B6C80190
:10F7C000C080F4D00203534545BDC101E719F7B12C
:10F7D000C080F2EE0408444F464642415345BDC046
:10F7E000F0BDC0D7C4E4C6BBC6F7C6AFC4E4C652BA
:10F7F000C5FCE2CEC2B5E5E0D342C703C4E4C652BD
:10F80000E680C080F5630406464642415345BDC1CB
:10F8100001E7B6F7DECD23E8BEC080F5330102482C
:10F8200058BDF7E110F3EC0102444DBDF7E10AF8D1
:10F83000280102424EBDF7E102F5E101065B5448A2
:10F84000454E5DBDC101C080F7C5040D5B434F4E01
:10F85000444954494F4E414C5DBDC101C274F862E8
:10F86000C801C5FCE2CEC80CC9D4C6AFC2C25BC8D1
:10F87000FAC281F860C6DAC2C201D307C77AD39A46
:10F88000C77AD5CD055448454E5DD3C3C29EF8987E
:10F89000C76CC0B1C274F85CC77AD5CD05454C536E
:10F8A000455DD3C3C29EF8B2C76CC7EFC0B1C27486
:10F8B000F85CC77AD5CD0349465DD3C3C29EF8CA6A
:10F8C000C76CC80CC9D4C274F85CD5CD0641484594
:10F8D00041445DD3C3C29EF8DDC80CC9D4C274F8DC
:10F8E0005CF83C01065B454C53455DBDC101C2C29D
:10F8F00000F859C080F65001075B41484541445D1E
:10F90000BDC101F8EBC080F0D501045B49465DBD87
:10F91000C101C094F8EBC080F15202024D53BDC149
:10F9200001C2C200C32BF93AC2C212C2C200C30D47
:10F93000F936C343F932C343F928C080D163F90AC9
:10F94000880123BDC101C2C200C2D10033C080F80A
:10F950001E0903524547BDC101C2C200C5FCD429DE
:10F96000C6DAC2C200C32BF979C6DAD74BC826C69D
:10F97000F7C969C703C343F969C801D592E438D50B
:10F9800036F943C080F7AC0806414C4C524547BDA0
:10F99000C101C2B500FFF943C080F72708034450F6
:10F9A00029BDC101C2C210C2D10033C080F8E40831
:10F9B000022329BDC101C826C2B50089D720C08055
:10F9C000F7D50803504329BDC101C2C220C2D100EE
:10F9D00033C2B5008DC080F9B008025B5DBDC101C6
:10F9E000C430C2C220C8FAC281FA02C80CC2B50033
:10F9F0009DC95DC2B50080C8FAD708C2C210C9FD52
:10FA0000C080C2C220C2D10033C2B5009FC080EB0B
:10FA1000D6F8F888024946BDC101CD23C2C200CD47
:10FA200023C4BFC2C206CDE5C080EBF4FA1488053A
:10FA30004148454144BDC101C2C220FA17C080EC13
:10FA40001DF54788045448454EBDC101CDF9C2C2D9
:10FA500006D4E5C4BFC818CA06C80CD6D6C8D1D7C4
:10FA600008C826C9DFC643C080EC3BF99D88054223
:10FA70004547494EBDC101C4BFC2C207CDE5C080E4
:10FA8000EC54F9DA8805554E54494CBDC101CDF905
:10FA9000C2C207D4E5C826CD23C4BFC9D4CA06C88C
:10FAA0000CD6D6C8D1D708CD23C080EC73FA858890
:10FAB00005414741494EBDC101C2C220FA8BC080F9
:10FAC000EC8EF3BC8804454C5345BDC101FA35C2E8
:10FAD000C201CE38FA49C080ECA4F6A3880652458C
:10FAE00050454154BDC101FAB6FA49C080EC08FA4C
:10FAF000B088055748494C45BDC101FA17C2C2013B
:10FB0000CE38C080F83208044E455854BDC101E0DB
:10FB100094E0ECF9DDDAFCC080000000000F4D61DC
:10FB20006973466F72746820616E363031FFFDFB79
:10FB3000190E537461636B206F766572666C6F7714
:10FB4000FFFCFB2D0F537461636B20756E6465724F
:10FB5000666C6F77FFF3FB400A43616E2774206683
:10FB6000696E64FFF2FB540E4F6E6C7920636F6D0B
:10FB700070696C696E67FFF1FB630950726F7465A1
:10FB800063746564FFF0FB760C456E64206F66203D
:10FB9000696E707574FFEAFB840F53747275637439
:10FBA000757265206572726F72FFE4FB950E557376
:10FBB000657220696E74657272757074FFE0FBA9DE
:10FBC00015496E76616C6964206E616D65206172A5
:10FBD00067756D656E74FFCFFBBC1553656172630D
:10FBE00068206F72646572206F766572666C6F77DD
:10FBF000FFCEFBD616536561726368206F72646531
:10FC00007220756E646572666C6F77FFC3FBF00CD3
:10FC100057686174277320746869733FFFC2FC0BD7
:10FC200018424153452069732072657365742074CE
:10FC30006F20646563696D616CFFC1FC1C17496CC2
:10FC40006C6567616C2061646472657373696E676B
:10FC5000206D6F64652020200000506700000000C8
:10FC60000000000000000000000000000000000094
:10FC70000000000000000000000000000000000084
:10FC80000000000000000000000000000000000074
:10FC90000000000000000000000000000000000064
:10FFF000C0000057005A005D006000630066F1B861
:040000030000C00039
:00000001FF
