:10C000007EF17EF910F8FFFA9BF8D9F7C5F809FA26
:10C01000C5F946FA02FAB0FA2CF179F230F9EDF9E5
:10C0200081FA83EDD7FBF7EA9003030000000000DC
:10C030001FFADB00300000000000000000020000DA
:10C0400000000000000003000003000000000000EA
:10C0500000000A00003B00003B00003B00003B00EA
:10C06000003B00003B00000207455845435554453E
:10C070001F0135066E8400000204455849543720DC
:10C080006EB10000040C455849542D4F4E2D5452AA
:10C090005545108300003506270237206EB1000099
:10C0A000040D455849542D4F4E2D46414C534510D3
:10C0B0008300003506260237206EB10000040444D8
:10C0C0004956451F21372036106EB1000004064442
:10C0D0004F444F455336203520351034061F106E1F
:10C0E000B100000406444F444F4552BDC0EEBDC0F0
:10C0F000D5CD3DC07E00000403444F3ABDC0EE36AE
:10C100002035206EB1C0BE0408444F43524541540F
:10C1100045BDC0EE351034061F106EB10000040599
:10C12000444F564152BDC0EE351034061F106EB15B
:10C1300000000406444F43434F4EBDC0EE3510345B
:10C1400006E6841D6EB1C0F80405444F434F4EBD52
:10C15000C0EE35103406EC846EB1C0E40405444FE3
:10C1600056414CBDC0EE35103406EC846EB1C15D55
:10C170000406444F49564152BDC0EE35103406EC1A
:10C18000846EB1C11F0406444F4956414CBDC0EEF8
:10C1900035103406EC946EB1C0CE0406444F5641BF
:10C1A0005253BDC0EE5849E3E16EB1C0850205456A
:10C1B0004D49543F3406B6B0005F840227015A1D32
:10C1C0006EB1C186040528454D49548EB000A68441
:10C1D000840227FAE70135066EB1000006062155F4
:10C1E000534152548EB0008655A78435066EB10077
:10C1F0000002044B45593F3406B6B0005F84012766
:10C20000015A1D6EB1C1F202034B455934068EB07E
:10C2100000E684C40127FAE6014F6EB1C068040746
:10C22000494E4C494E45233406AEC4EC81AFC46E32
:10C23000B1C0790407494E4C494E45243406AEC47A
:10C24000E6804F34103AAFC46EB1000004082F49A5
:10C250004E4C494E45243406AEC4E6803085AFC40A
:10C2600035066EB1C2340406474F544F282910AE2C
:10C27000A46EB1C0A10404494628291083000035EA
:10C2800006260510AEA46EB131226EB1C276040846
:10C2900049465A45524F2829108300003506270584
:10C2A00010AEA46EB131226EB10000040228293410
:10C2B00006ECA16EB1000004032843293406E6A071
:10C2C0001D6EB1C2B80404544F2829AEA1ED8435C7
:10C2D000066EB1C26704052B544F2829AEA1E38432
:10C2E000ED8435066EB1C21F0406494E435228291B
:10C2F000AEA13406EC84C30001ED8435066EB1C2F4
:10C30000C60404444F2829AEA136101F01CC80007A
:10C31000A3E13606308B361035066EB100000405F9
:10C320003F444F282910A3E426DD3262350610AEC3
:10C33000A46EB1C30204064C4F4F5028293406ECBA
:10C34000C4C300012909EDC4350610AEA46EB13195
:10C3500022334635066EB1C20804072B4C4F4F50AE
:10C360002829E3C420DEC2AC02054C4541564533C2
:10C370004437206EB1C2D60206554E4C4F4F503353
:10C38000466EB1C1AE0201493406ECC4A3426EB19F
:10C39000C19B02014A3406EC46A3486EB1C3930424
:10C3A00006544F50564F43BDC1900023C369040645
:10C3B000544F504D5347BDC1900025C14904065408
:10C3C0004F50504658BDC1900027C1080406544F35
:10C3D000504E4641BDC1900029C3BE0403484C44A1
:10C3E000BDC190002BC24D0407434F4E54455854D5
:10C3F000BDC190002DC31F0403435323BDC1900052
:10C400002FC1DD04064D5347232D32BDC1900031AD
:10C41000C3E804044D4F4445BDC1900033C2E90454
:10C420000753454354494F4EBDC1900035C378046E
:10C43000062354494D4553BDC1900037C28F0403B4
:10C44000234942BDC1900039C35A04024942BDC1CB
:10C4500090003BC3A004055448455245BDC190001F
:10C460003DC1330603484F52BDC190003FC3CD06C6
:10C4700003564552BDC1900041C336060548494D9B
:10C48000454DBDC1900043C40406024F4BBDC19051
:10C490000045C4560604444F543FBDC1900047C3F5
:10C4A000AF020448455245BDC1900049C420040371
:10C4B000575244BDC17B004BC47002033E494EBD80
:10C4C000C17B004FC171020442415345BDC17B0095
:10C4D00051C43002055354415445BDC17B0053C47F
:10C4E0004B06052753574933BDC17B0055C413067E
:10C4F000052753574932BDC17B0058C48A0605271A
:10C5000046495251BDC17B005BC4E2060427495233
:10C5100051BDC17B005EC50C060427535749BDC100
:10C520007B0061C5190604274E4D49BDC17B0064DF
:10C53000C43F02064F524947494EBDC152C000C1D7
:10C54000C5040946494E44535441434BBDC13D7552
:10C55000C4F0040743555252454E54BDC13D7FC3FC
:10C56000DC0403544942BDC1520080C53304025368
:10C5700030BDC152017EC49504025230BDC152018A
:10C58000FEC4A20406464C59425546BDC1520200A3
:10C59000C3860403435330BDC15202FCC584040763
:10C5A00054494253495A45BDC13D7EC56E060443B8
:10C5B000454C4CBDC13D02C4BB020454525545BD5F
:10C5C000C13DFFC4C7020546414C5345BDC13D00B6
:10C5D000C59F0202424CBDC13D20C3F80407434C35
:10C5E0004541522D5310CE017E35066EB1C5AE04C5
:10C5F00007434C4541522D52CE01FE6EB1C5930406
:10C600000353504034061F406EB1C5BA0403525064
:10C610004034061F306EB1C5DD020243211F0135D3
:10C6200006E78435066EB1C5530201211F013506A8
:10C63000ED8435066EB1C5C6020232211F013506F2
:10C64000ED813506ED8435066EB1C4FE02022B2164
:10C650001F013506E384ED8435066EB1C4D40603AC
:10C66000432B211F013506EB84E78435066EB1C6E6
:10C67000000603312B211F01EC84C30001ED84353A
:10C68000066EB1C5F0020243401F01E6844F6EB151
:10C69000C5420201401F01EC846EB1C5790202322D
:10C6A000401F01EC81AE8434106EB1C672020543A6
:10C6B0004F554E541F01E6804F34106EB1C60D0623
:10C6C00002402B1F01EC8134106EB1C5D302023E33
:10C6D00052360635066EB1C47C0202523E3406372D
:10C6E000066EB1C69E0203323E5235103610360633
:10C6F00035066EB1C6CE020332523E3406370637D7
:10C700001034106EB1C6E6020252403406ECC46E1C
:10C71000B1C6C002033252403406AE423410ECC4FB
:10C720006EB1C6DA06055244524F5033426EB1C75D
:10C73000080606325244524F5033446EB1C72502A8
:10C74000053244524F50326235066EB1C6F70204CC
:10C7500032445550AEE4340634106EB1C74F020473
:10C76000324E49503510326434106EB1C75F020545
:10C77000324F5645523406EC663406EC666EB1C74D
:10C7800040020532535741503606AEE4EC64AF64C4
:10C79000EDE43710EC62AF626EB1C464020532544E
:10C7A00055434BBDC0FFC788C775C07EC732020462
:10C7B00032524F54BDC0FFC6EAC788C6FBC788C007
:10C7C0007EC6AE02043F4455501083000027023459
:10C7D000066EB1C693020444524F5035066EB1C680
:10C7E00039020344555034066EB1C68602044F56D2
:10C7F00045523406EC626EB1C4AF02045357415047
:10C80000AEE4EDE41F106EB1C76F02045455434B04
:10C81000AEE4EDE434106EB1C7820203524F54AE61
:10C82000E4EDE4EC62AF626EB1C52602042D524F16
:10C8300054AE62ED62ECE4AFE46EB1C80B02034E9D
:10C84000495032626EB1C81B02045049434B581F15
:10C85000413AEC846EB1C65F02034D494E10A3E429
:10C860002DE035066EB1C64D02034D415810A3E4CC
:10C870002ED035066EB1C61A0604554D494E10A38A
:10C88000E425BF35066EB1C82C0604554D4158103D
:10C89000A3E422AE35066EB1C79D0202303C1F896B
:10C8A0001D1F896EB1C83E0202303D108300002674
:10C8B00004531D6EB14F5F6EB1C7D60202303E10F9
:10C8C00083000026026EB11F891D431F896EB1C708
:10C8D000FB02013DA3E127D94F5F6EB1C7E202021F
:10C8E0003C3EA3E12703CCFFFF6EB1C89B0203309F
:10C8F0003C3E1083000026EE6EB1C8690202553E30
:10C90000A3E125E24F5F6EB1C88A0202553CA3E164
:10C9100022D44F5F6EB1C84902013EA3E12DC74F3B
:10C920005F6EB1C8EE02013CA3E12EBA4F5F6EB15B
:10C93000C90B0203414E44A4E0E4E06EB1C8D20248
:10C94000024F52AAE0EAE06EB1C9260203584F52E4
:10C95000A8E0E8E06EB1C8790206494E5645525447
:10C9600043536EB1C56202064C53484946541F01F9
:10C970003506308427065849301F26FA6EB1C8A8FC
:10C9800002065253484946541F0135063084270693
:10C990004456301F26FA6EB1C981060842595445E3
:10C9A000535741501E896EB1C7C40202312BC300D8
:10C9B000016EB1C9400202312D8300016EB1C7146E
:10C9C0000202322A58496EB1C8BC0202322F4756C1
:10C9D0006EB1C95902012BE3E16EB1C9B602012D56
:10C9E000A3E14353C300016EB1C967020344322A75
:10C9F0001F013506584934061F1059496EB1C9192F
:10CA0000020344322F47561F013506465634061F8F
:10CA1000106EB1C7AF06044455322F4420E86EB102
:10CA2000C9EC02064E45474154454353C300016ECD
:10CA3000B1C7ED02034142534D2DEF6EB1C9D5068A
:10CA4000073F4E45474154454D35062DDD6EB1C972
:10CA50009B0207444E454741544534065F1D1F0164
:10CA6000A362ED621F10C2001DA3E16EB1CA5202A3
:10CA700004444142534D2DE26EB1C93306083F4490
:10CA80004E45474154454D35062DCF6EB1CA16026D
:10CA900002442B1F013506E362ED621F10C90089B5
:10CAA00000E3E16EB1CA010202442D3406EC66A334
:10CAB00062ED66EC64C2008200A3E432666EB1C926
:10CAC000DE02024D2BE362ED623506C90089006E7D
:10CAD000B1C8590203554D2A3416A665E6613DEDED
:10CAE00062A664E6613DEB628900ED61A665E6E45D
:10CAF0003DE361ED61860049E6E4A7E4A6643DE319
:10CB0000E4AE623264AFE46EB1CA7D0206554D2FC9
:10CB10004D4F4434068E001068656964696369622C
:10CB2000EC622408A3E4ED621CFE2006A3E42502C7
:10CB3000ED6269656964301F26E2EC644353AE62BE
:10CB4000AF6432646EB1C9C1020446494C4C362010
:10CB500035308C00002706E7A0301F26FA3506374F
:10CB6000206EB1CAC20603533C3EE362AE6210AF10
:10CB70006210AEE4EDE45F200FA680A0A02709C2FA
:10CB8000001DCA0135306EB1ACE426ED1D35306EA6
:10CB9000B1CAD40205434D4F5645E362AE6210AFB1
:10CBA0006210AEE4EDE42004E680E7A0ACE426F8F1
:10CBB000353035066EB1C62A0206434D4F56453E06
:10CBC000AE62308B10AF6210AEE431AB2004E6826F
:10CBD000E7A210ACE426F7353035066EB1313F34AC
:10CBE0002037201F106EB1CB660604534B495036D8
:10CBF0002035308C00002708E1A026E1301F26F800
:10CC000020DDC9AB06045343414E362035308C003D
:10CC1000002708E1A027C6301F26F820C2C8FD0261
:10CC20000543454C4C2BC300026EB1CC200205439A
:10CC30004841522BC300016EB1C8DF02053E424F8E
:10CC40004459C300036EB1CB94060543454C4C2DAB
:10CC50008300026EB1CC4A0605434841522D830041
:10CC6000016EB1CA900605424F44593E8300036EDF
:10CC7000B1CC2E020543454C4C5358496EB1CC748F
:10CC8000030543484152536EB1CA2304094E414D36
:10CC9000453E4C494E4B8300036EB1CC66020452B4
:10CCA0004F4C4CBDC0FFC6D1C70BC84EC604C7E62B
:10CCB000CC26C6DDC9AECC7ACBC0C7DBC07EC9CB23
:10CCC0000203504144BDC0FFC4A7C2BC40C9D7C085
:10CCD0007ECC580205414C4C4F54BDC0FFC2DC0015
:10CCE00049C07EC94C02012CBDC0FFC4A7C62CC5DB
:10CCF000B3C2DC0049C07ECBEA0202432CBDC0FFB8
:10CD0000C4A7C61DC2F00049C07ECAA806054E4190
:10CD10004D453E1F01E680C41F30851F106EB1CC0B
:10CD2000E606053E4E414D451F01C660E48226FAE7
:10CD30001F106EB1CC81040521444F4552BDC0FF88
:10CD4000C3D4CD13C9AEC62CC07ECC9E04044049CA
:10CD50004D4D1F01E682C401585A1D6EB1CD0D0420
:10CD600004484F4D3F1F01E6821D1F896EB1CD6003
:10CD7000040440564F431F01E682C47E1D6EB1CCB1
:10CD8000FA020657495448494EA3E41F01EC62A336
:10CD9000E1AFE4A3E1C60024015A1D6EB1CC050445
:10CDA00003435350BDC0FFC597C3FCCC7AC9C4C26E
:10CDB000BC7CC937C9E0C07ECCC104033E4353BD2F
:10CDC000C0FFC2F0002FCDA4C63CC07ECD820403BC
:10CDD00043533EBDC0FFCDA4C6A1C2BCFFC2DC0010
:10CDE0002FC07ECA40020743532D5049434BBDC05C
:10CDF000FFC3FCC6D1CA2AC2DC002FCDD3C6DDC218
:10CE0000CB002FCDBFC07ECBB9020743532D524F6D
:10CE10004C4CBDC0FFC6D1C70BC2BC00C325CE263B
:10CE2000CDD3C33DCE20C6DDCDD3C6EAC2BC00C340
:10CE300025CE39CDBFC33DCE33C6FBCDBFC07ECEE0
:10CE40000A0203533E4434061F891D1F896EB1CD6B
:10CE50003702024D2ABDC0FFC7F2CA38C7F2CA382E
:10CE6000CAD8C788C950CA86C07ECE520206534D62
:10CE70002F52454DBDC0FFC7F2C6D1C6D1CA75C736
:10CE80000BCA38CB13C6DDC70BC950CA48C800C689
:10CE9000DDCA48C800C07ECD710206464D2F4D4FF9
:10CEA00044BDC0FFC6D1C810CA75C70BCA38CB1362
:10CEB000C800C70BCA48C800C81FC70BC950C89EC6
:10CEC000C27BCED6CA2AC7F2C27BCED6C9B9C70B9F
:10CED000C81FC9E0C800C72BC07ECD4D02012ABDC6
:10CEE000C0FFCE55C7DBC07ECE4202042F4D4F445B
:10CEF000BDC0FFC6D1CE46C6DDCEA1C07ECB0C02E2
:10CF0000012FBDC0FFCEF0C842C07ECDE602034D6A
:10CF10004F44BDC0FFCEF0C7DBC07ECE9A02052ACB
:10CF20002F4D4F44BDC0FFC6D1CE55C6DDCEA1C0EA
:10CF30007ECC8C02022A2FBDC0FFCF24C842C07E07
:10CF4000CCD40204454D4954BDC0FFC1CBC2F00052
:10CF50003FC07ECDA002024352BDC0FFC2BC0DC186
:10CF6000CBC2BC0AC1CBC5CCC2CB003FC2F0004192
:10CF7000C07ECF4302055350414345BDC0FFC5D6D7
:10CF8000CF48C07ECF750206535041434553BDC0C4
:10CF9000FFC5D6C800C2BC00C325CFA4C7E6CF4892
:10CFA000C33DCF9CC7DBC07ECB49020454595045DA
:10CFB000BDC0FFC2BC00C325CFC2C6B4CF48C33D6D
:10CFC000CFBAC7DBC07ECEDD020450414745BDC0AD
:10CFD000FFC2BC0CCF48C5CCC2CB003FC5CCC2CB36
:10CFE0000041C07ECF3406094241434B5350414378
:10CFF00045BDC0FFC468C0AFC2BC08C5D6C7F2C13A
:10D00000CBC1CBC1CBC2BCFFC2DC003FC07ECA34A7
:10D010000409414343455054494E47BDC0FFC20C2B
:10D02000C7E6C7E6C5D6C928C800C2BC7EC91BC9A9
:10D0300043C27BD06AC2BC0DC7F2C8D4C27BD04603
:10D04000C764C7DBC07EC7E6C2BC08C8D4C800C27C
:10D05000BC7FC8D4C943C27BD068C7E6C27BD0645A
:10D06000CFF1C9B9C26ED01EC5D6C7F2C2BC04C8C2
:10D070004EC8D4C27BD07DC7DBC26ED01EC7E6C708
:10D0800075C9D7C61DCF48C9AEC26ED01ECE6D02BF
:10D0900006414343455054BDC0FFC800C5CCD01B1A
:10D0A000C07ECDBB060644552F4D4F44BDC0FFC8C2
:10D0B00010C5CCC800CB13C6D1C800CB13C6DDC089
:10D0C0007ECFE7060344552ABDC0FFC810CAD8C7A3
:10D0D000DBC6D1CAD8C6DDC9D7C07ECD220204487E
:10D0E0004F4C44BDC0FFC2BCFFC2DC002BC3E0C636
:10D0F0001DC07ECA7002023C23BDC0FFCCC5C2CB9E
:10D10000002BC07ECFAB04063E4449474954BDC006
:10D11000FFC7E6C2BC09C91BC2BC07C937C9D7C211
:10D12000BC30C9D7C07ED090020123BDC0FFC4CCA3
:10D13000C695D0ACC81FD10ED0E3C07ECF87020207
:10D140002353BDC0FFD12BC754C943C298D145C09A
:10D150007ECEEB0202233EBDC0FFC746C3E0CCC576
:10D16000C7F2C9E0C07ECF5602045349474EBDC046
:10D17000FFC89EC0AFC2BC2DD0E3C07ED107060958
:10D1800044552E535452494E47BDC0FFD0F9D142A9
:10D19000D157C07ECFC90608442E535452494E473A
:10D1A000BDC0FFC810CA75D0F9D142C81FD16ED119
:10D1B00057C07ED0C406055254595045BDC0FFC764
:10D1C00054C85DC9E0CF8ECFB0C07ED0A506034461
:10D1D000552EBDC0FFD189CFB0CF7BC07ED0DE063B
:10D1E0000444552E52BDC0FFC6D1D189C6DDD1BC85
:10D1F000C07ED1E00202442EBDC0FFD1A0CFB0CF8F
:10D200007BC07ED1290202552EBDC0FFC2BC00D119
:10D21000D2C07ECF1E02012EBDC0FFCE46D1F8C0C7
:10D220007ED1B60203442E52BDC0FFC6D1D1A0C6E6
:10D23000DDD1BCC07ED13F0203552E52BDC0FFC61A
:10D24000D1C2BC00D189C6DDD1BCC07ED0F60202FD
:10D250002E52BDC0FFC6D1CE46D1A0C6DDD1BCC0C6
:10D260007ECF0002013FBDC0FFC695D218C07ED15F
:10D27000F50207444543494D414CBDC0FFC2BC0ABD
:10D28000C4CCC62CC07ED1CE0203484558BDC0FFD9
:10D29000C2BC10C4CCC62CC07ECC3C060642494E53
:10D2A000415259BDC0FFC2BC02C4CCC62CC07ED204
:10D2B000060206534F55524345BDC0FFC44EC443FA
:10D2C000C07ED23802072F535452494E471F01E304
:10D2D00062ED62ECE4AFE4A3E16EB1D01104064369
:10D2E00041544348283640305E36106EB1D2B20405
:10D2F00006294341544348334434064F5F6EB1D14D
:10D300005402054341544348BDC0FFD2E5C070D22A
:10D31000F7C07ED17F0406285448524F571F011F83
:10D320003010A3C126F937401F1037206EB1D2C587
:10D33000020541424F5254BDC0FFC2BCFFD31DC0C5
:10D340007ED2890406285550504552C1612506C138
:10D350007A2202C0206EB1D2640605555050455263
:10D36000BDC0FFC2BC00C325D37AC7E6C689D34B74
:10D37000C7F2C61DC9AEC33DD36AC7DBC07ED35A50
:10D380000207434F4D50415245BDC0FFC81FC7540F
:10D39000C9E0C6D1C87ECB6AC7C9C27BD3A2C72B9E
:10D3A000C07EC6DDC7E6C0AFC8BFC9C4C9AEC07EB7
:10D3B000D30202044D4F5645BDC0FFC754C9D7C75D
:10D3C00075CD89C27BD3CBCB9AC07ECBC0C07ED378
:10D3D000160605504C414345BDC0FFC754C61DCC81
:10D3E00034C800D3B8C07ED1690204574F5244BD3F
:10D3F000C0FFC6D1D2B9C4BFC695D2CDC810C70B25
:10D40000CBEFC7F2C800C6DDCC0AC6D1C7F2C9E06F
:10D41000C754C4B3C63CC4A7D3D8C6DDC7E6C8F258
:10D42000C9D7C9E0C4BFC650C4A7C07ED3D20205C5
:10D430005041525345BDC0FFC6D1D2B9C4BFC695F5
:10D44000D2CDC754C6DDCC0AC6EAC6DDC7E6C8F2EF
:10D45000C9D7C9E0C4BFC650C6DDC7F2C9E0C07EA7
:10D46000D2F006063F535441434B34061F405D2B18
:10D470000435066EB1C6FC4D26015C1D7ED31DD45D
:10D480006306053F42415345BDC0FFC4CCC695C2AB
:10D49000BC02C2BC49CD89C092D27AC2BCC2D31DE3
:10D4A000C07ED3EA06053F50414952BDC0FFC8D4F3
:10D4B000C092C2BCEAD31DC07ED2DE06053F434FF8
:10D4C0004D50BDC0FFC4DAC695C092C2BCF2D31D98
:10D4D000C07ED4BC0208434F4D50494C452CBDC0C2
:10D4E000FFD4C2C4A7C62CC5B3C2DC0049C07ED3DA
:10D4F000810409434F4D50494C452829BDC0FFC206
:10D5000027D4DEC07ECF0E03015BBDC0FFC5CCC4F7
:10D51000DAC62CC07ECDCF02015DBDC0FFC5BFC441
:10D52000DAC62CC07ED482040A534146452D5448A5
:10D53000455245BDC0FFC2BC40C45CC58BC9E0C9F3
:10D540000EC27BD54BC58BC2CB003DC45CC07ED226
:10D55000160405464C594552BDC0FFC4DAC695C0F5
:10D5600092D533C4A7C2CB003DC7E6C2CB0049C6A3
:10D57000DDC6EAD51AC0C3D4FCC07ED50AC4A7C490
:10D580005CC2CB0049C2CB003DC07ED272040422F3
:10D59000285329BDC0FFC23CC07ED29C04052E2268
:10D5A000285329BDC0FFC23CCFB0C07ED552030274
:10D5B0002E28BDC0FFC2BC29D435CFB0C07ED4D583
:10D5C0000605574F52442CBDC0FFD3EFC689C9AEE4
:10D5D000CCDAC07ED58E060650415253452CBDC0D4
:10D5E000FFD435C4A7C7F2C9AECCDAD3D8C07ED336
:10D5F000B3040941424F525422285329BDC0FFC2EF
:10D600007BD60EC70BC2CB0031C2BCFED31DC256A7
:10D61000C07ED331030641424F525422BDC0FFD5D4
:10D6200058D4FCD5FCC2BC22D5DEC07ED24F070147
:10D6300022BDC0FFD558D4FCD593C26ED625D4A543
:10D6400003025322BDC0FFC26ED634D62F03022E72
:10D6500022BDC0FFD558D4FCD5A3C26ED625D508AF
:10D6600006044D534722BDC0FFC4A7C800CCE8C381
:10D67000B6CCE8C2CB0025C26ED625D5D70205446C
:10D6800045505448BDC0FFC604C571C800C9E0C9B3
:10D69000CEC07ED64E0405384249543FBDC0FFC2BD
:10D6A000BC80C2AF0080CD89C07ED5180408494E29
:10D6B00049544D4F4445BDC0FFC2BC30C2CB0033BE
:10D6C000C07ED5F204083F494C4C4547414CBDC093
:10D6D000FFC0AFC2BCC1D31DC07ED6C50408494E31
:10D6E000444558524547BDC0FFC2BC20C2CB0033A1
:10D6F000C800C9B9C2BC03C7F2C90ED6CEC2BC05A8
:10D70000C96EC943C07ED3440407524547434F44C2
:10D7100045BDC0FFC2BC5AC7F2C928C5D6C937C962
:10D72000E0C6D1D593102C414244585955530002BC
:10D73000040610204040C9CEC810C6DDCC0AC27B0A
:10D74000D748C9D7C689C07EC2BCC1D31DD4F20494
:10D75000052B4D4F4445BDC0FFC418C9D7C7E6C20D
:10D76000AF00F0C937C2BC50C8E2C092C2BC0FC9FA
:10D7700037C07ED2240405504352454CBDC0FFC87B
:10D7800000C4A7C2BC02C9D7C9E0C7E6D69CC27B09
:10D79000D7A0C800C2AF00FEC937CCFDCCFDC07E0B
:10D7A000C9B9C800CCFDCCE8C07ED6AD0406434F55
:10D7B00046534554BDC0FFC7F2C298D7CEC2AF0092
:10D7C000F0C937C2BC04C943CCFDC7DBC07EC7F279
:10D7D000C2BCF0C2BC10CD89C7F2C2BC10C937C8E8
:10D7E000ABC937C27BD7F9C2BC60C937C800C2BC5D
:10D7F0001FC937C943CCFDC07EC7F2D69CC27BD8B7
:10D800000DC2AF00FEC937CCFDCCFDC07ECCFDCC37
:10D81000E8C07ED6150407494E4445584544BDC06E
:10D82000FFC7E6C2AF008FC937C7E6C2AF0089C8DD
:10D83000D4C27BD83BC7DBD7B4C07EC7E6C2AF003B
:10D840008DC8D4C27BD84DC7DBD77CC07EC7E6C2AB
:10D85000AF008FC8D4C27BD861C7DBCCFDCCE8C099
:10D860007EC7DBCCFDC07ED7500405494D4D4544F5
:10D87000BDC0FFC689C9B9CE46D6CEC27BD883CC3F
:10D88000E8C07ECCFDC07ED67E0405444F5345588B
:10D89000BDC0EEBDC0D5C689CCFDD6B6C07ED59D77
:10D8A0000406444F53574932BDC0EEBDC0D5C6959E
:10D8B000CCE8D6B6C07ED42F0406444F4357414926
:10D8C000BDC0EEBDC0D5C418D6CEC689CCFDCCFD3A
:10D8D000D6B6C07ED5C1040647454E414452BDC0B0
:10D8E000FFC418D6B6C7E6C2BC00C8D4C27BD8F6FF
:10D8F000C7DBD870C07EC7E6C2BC10C8D4C27BD913
:10D9000009C7DBC7DBCCFDC07EC7E6C2BC20C8D4DC
:10D91000C27BD91CC7DBC7DBD81EC07EC7E6C2BC32
:10D9200030C8D4C27BD92FC7DBC7DBCCE8C07ED6DA
:10D93000CEC07ED8B90405444F4E4547BDC0EEBDAC
:10D94000C0D5C6B4D756CCFDD8DEC07ED696040569
:10D95000444F4C4459BDC0EEBDC0D5C6C3D756CC0C
:10D96000E8D8DEC07ED9360405444F455847BDC0CF
:10D97000EEBDC0D5C689CCFDC800C2BC04C96EC905
:10D98000D7CCFDD6B6C07ED94F0405444F4C454197
:10D99000BDC0EEBDC0D5C418C2BC20C9E0D6CEC63D
:10D9A00089CCFDD81ED6B6C07ED98A0405444F4224
:10D9B0004551BDC0EEBDC0D5C689C800C4A7C2BC14
:10D9C00002C9D7C9E0D6B6C7E6D69CC27BD9D7C8AC
:10D9D00000CCFDCCFDC07EC2BC10CCFDC800CCFD8F
:10D9E000C2BC02C9E0CCE8C07ED9AC0405444F42B9
:10D9F0005241BDC0EEBDC0D5C695C800C4A7C2BCCB
:10DA000002C9D7C9E0D6B6C7E6D69CC27BDA19C828
:10DA100000C9A4CCFDCCFDC07EC800CCFDC9B9CCEA
:10DA2000E8C07ED5AF0404444F2D29BDC0EEBDC073
:10DA3000D5C689D6E6C07ED77608034E4547BDD900
:10DA40003F4000D86A0803434F4DBDD93F4300D73C
:10DA50000908034C5352BDD93F4400D197080352E3
:10DA60004F52BDD93F4600D6610803415352BDD93C
:10DA70003F4700DA46080341534CBDD93F4800D820
:10DA8000A108034C534CBDD93F4800DA2608035285
:10DA90004F4CBDD93F4900D9680803444543BDD91F
:10DAA0003F4A00D7AD0803494E43BDD93F4C00D88B
:10DAB0008A0803545354BDD93F4D00DA8E08034AF7
:10DAC0004D50BDD93F4E00D8D70803434C52BDD965
:10DAD0003F4F00D528080453554241BDD93F80012E
:10DAE000DAD60804434D5041BDD93F8101DAE3083D
:10DAF0000453424341BDD93F8201DACA0804535559
:10DB00004244BDD93F8302DAA60804414E4441BDD8
:10DB1000D93F8401DAB2080442495441BDD93F8556
:10DB200001D9EC08034C4441BDD93F8601D8160801
:10DB300003535441BDD93F8700D6DD0804454F52F9
:10DB400041BDD93F8801DB0A080441444341BDD9A6
:10DB50003F8901DAF008034F5241BDD93F8A01DB0A
:10DB600049080441444441BDD93F8B01DB620804AC
:10DB7000434D5058BDD93F8C02DB2408034A535211
:10DB8000BDD93F8D00DB1708034C4458BDD93F8EEB
:10DB900002D6410803535458BDD93F8F00DB3C08DF
:10DBA0000453554242BDD93FC001DBA00804434D98
:10DBB0005042BDD93FC101DBAD080453424342BDD1
:10DBC000D93FC201DA6A080441444444BDD93FC385
:10DBD00002DA760804414E4442BDD93FC401DABEA0
:10DBE000080442495442BDD93FC501DA5208034CEA
:10DBF0004442BDD93FC601DAFD0803535442BDD9A2
:10DC00003FC700DB560804454F5242BDD93FC8010B
:10DC1000DBD4080441444342BDD93FC901DBBA0803
:10DC2000034F5242BDD93FCA01DC130804414444AA
:10DC300042BDD93FCB01DA8208034C4444BDD93FF1
:10DC4000CC02DC200803535444BDD93FCD00DA5E3A
:10DC500008034C4455BDD93FCE02DC2C0803535475
:10DC600055BDD93FCF00DBFA0804434D5044BDD920
:10DC700058108302DC060804434D5059BDD9581092
:10DC80008C02DB7C08034C4459BDD958108E02DB52
:10DC9000300803535459BDD958108F00DBE10803F5
:10DCA0004C4453BDD95810CE02DBC708035354531C
:10DCB000BDD95810CF00DCAC0804434D5055BDD938
:10DCC00058118302DC5D0804434D5053BDD95811EF
:10DCD0008C02DA3A08044C454158BDD99330DA9A9F
:10DCE00008044C454159BDD99331DC5108044C45D9
:10DCF0004153BDD99332DC9F08044C454155BDD9F1
:10DD00009333DC450803455847BDD9711EDCD5085F
:10DD100003544652BDD9711FDC8508034E4F50BDD8
:10DD2000D89312DCC7080453594E43BDD89313DC73
:10DD3000ED0803444141BDD89319DB9408035345D2
:10DD400058BDD8931DDC390803525453BDD89339BC
:10DD5000DC920803414258BDD8933ADD10080352C3
:10DD60005449BDD8933BDCB908034D554CBDD893FD
:10DD70003DDD530803535749BDD8933FDD5E08048A
:10DD80004E454741BDD89340DC770804434F4D4191
:10DD9000BDD89343DCE108044C535241BDD89344B1
:10DDA000DB880804524F5241BDD89346DB6F08040C
:10DDB00041535241BDD89347DDAF080441534C4114
:10DDC000BDD89348DD9708044C534C41BDD89348C7
:10DDD000DDA30804524F4C41BDD89349DCF9080437
:10DDE00044454341BDD8934ADC690804494E434148
:10DDF000BDD8934CDDDF080454535441BDD8934D36
:10DE0000DD8B0804434C5241BDD8934FDD320804EA
:10DE10004E454742BDD89350DD050804434F4D425F
:10DE2000BDD89353DD4808044C535242BDD8935497
:10DE3000DDF70804524F5242BDD89356DD26080440
:10DE400041535242BDD89357DE3F080441534C42E0
:10DE5000BDD89358DE2708044C534C42BDD8935884
:10DE6000DE330804524F4C42BDD89359DDD3080429
:10DE700044454342BDD8935ADD740804494E434299
:10DE8000BDD8935CDE6F080454535442BDD8935DF3
:10DE9000DE1B0804434C5242BDD8935FDE93080456
:10DEA00053574932BDD8AB103FDE4B080453574996
:10DEB00033BDD8AB113FDD6908044F524343BDD891
:10DEC000C31ADDBB0805414E444343BDD8C31CDE25
:10DED00063080450534853BDD8C334DED2080450FD
:10DEE000554C53BDD8C335DE0F080450534855BDBB
:10DEF000D8C336DEEA080450554C55BDD8C337DECA
:10DF000003080443574149BDD8C33CDD7F080342A1
:10DF10005241BDD9F52016DEF60803425352BDD951
:10DF2000F58D17DD1B080342524EBDD9B521DF0E1A
:10DF30000803424849BDD9B522DE570803424C5375
:10DF4000BDD9B523DF3C0803424853BDD9B524DE13
:10DF5000870803424C4FBDD9B525DF47080342432C
:10DF600043BDD9B524DF5D0803424353BDD9B52570
:10DF7000DBEE0803424E45BDD9B526DF310803422A
:10DF80004551BDD9B527DF680803425643BDD9B511
:10DF900028DF890803425653BDD9B529DEDE0803C0
:10DFA00042504CBDD9B52ADF7E0803424D49BDD948
:10DFB000B52BDF730803424745BDD9B52CDF9F0859
:10DFC00003424C54BDD9B52DDFC00803424754BDB0
:10DFD000D9B52EDFB50803424C45BDD9B52FDE9F1C
:10DFE0000803553E3FBDC13D23DFE10803553C3FDB
:10DFF000BDC13D24DF02080343533FBDC13D24DDC5
:10E00000EB08023D3FBDC13D26DFD6080356533F16
:10E01000BDC13D28DF260803303C3FBDC13D2ADF9E
:10E020001A08023C3FBDC13D2CDF9408023E3FBDB3
:10E03000C13D2FE02C08024E4FBDC0FFC2BC01C93C
:10E0400050C07EE036080144BDC13D00DFAA080192
:10E0500058BDC13D01DD3D080159BDC13D02E00291
:10E06000080155BDC13D03DFF7080153BDC13D04A3
:10E07000DDC708025043BDC13D05DFEC080141BDCD
:10E08000C13D08E017080142BDC13D09E061080338
:10E09000434352BDC13D0AE04F08024450BDC13D5B
:10E0A0000BE07D0802292BBDDA2E80DEC50803298E
:10E0B0002B2BBDDA2E81E0A408022D29BDDA2E8299
:10E0C000E0AE08032D2D29BDDA2E83E05808012982
:10E0D000BDDA2E84E04608024229BDDA2E85E08FA3
:10E0E00008024129BDDA2E86E07308024429BDDA10
:10E0F0002E8BE022040C504152454E544845534962
:10E100005A45BDC0FFD5A3022028C0C3D5A302290C
:10E1100020C07EDF5202022E53BDC0FFD46AE1024E
:10E12000CF7BD684C0AFD684C7E6C84ED218C9B953
:10E13000C7E6C298E128C7DBC07EE0CE0603552EB5
:10E1400053BDC0FFD46AE102CF7BD684C0AFD68472
:10E15000C7E6C84ED209C9B9C7E6C298E150C7DBC5
:10E16000C07EE11606042E4D5347BDC0FFC2BCFD64
:10E17000C7F2C90EC27BE186C9AEC0AFCF7BC40B6C
:10E18000C6B4CFB0C07EC3B6C26EE190CC26C695F1
:10E19000C7E6C695C27BE1A2C754C695C8D4C27B68
:10E1A000E18CCC26CC26C6B4CFB0C7C9C0AFE10243
:10E1B000D5A30A4D657373616765202320C2BC0037
:10E1C000D252C07EE00C04032E4F4BBDC0FFD4885A
:10E1D000D46AC48DC2BC01C937C27BE1F5C4DAC6BA
:10E1E00095C27BE1EFD5A303206F6BC26EE1F5D53D
:10E1F000A303204F4BCF59C48DC2BC02C937C27B89
:10E20000E208E119C26EE215C48DC2BC04C937C26E
:10E210007BE215E141C48DC2BC08C937C0AFC2BCA6
:10E220000AC4CCC695C8D4C092C4CCC695C7E6D2A1
:10E230007AC2BC00D252C4CCC62CD5A3022920C0BD
:10E240007EE0B902055155455259BDC0FFC566C7AC
:10E25000E6C2CB003BC5A7D097C2CB0039C2BC00F9
:10E26000C4BFC62CCF7BC07EE0860206524546491D
:10E270004C4CBDC0FFC566C44EC8D4C27BE287E12A
:10E28000CBE24AC5BFC07EC5CCC07EE13D06055786
:10E290004F52443EBDC0FFC7E6D3EFC7E6C689C2B2
:10E2A0007BE2A7C842C07EC7DBC6D1E272C298E259
:10E2B000B6C2BCF0D31DC6DDC26EE297E1C704064C
:10E2C0005448524541441F01A6841F8958E8865886
:10E2D000E801C40F58CB031D6EB1E09A040846490B
:10E2E0004E444E414D45BDC0FFC7E6C689C9AEC2CA
:10E2F000BC20C85DC754D360C7F2E2C6C26EE30259
:10E30000CC96C695C7E6C27BE314C7E6C775CB6A51
:10E31000C298E300C842C842C07EE0EB0408464908
:10E320004E44574F5244BDC0FFC6EAC7E6C27BE326
:10E3300079C5CCC800C26EE33FCC96CC50C695C719
:10E3400018C775C842CD76CC0AC842C6DDC7F2C927
:10E35000E0C6D1C27BE35BC842C7E6C7E6CD65C76E
:10E360000BC937C298E339C7DBC7E6C27BE379C87C
:10E3700042C7E6CD13C800CD52C739C07EE31D02A7
:10E380000446494E44BDC0FFC7E6E2E6C7E6C0AF5B
:10E39000C3F0C55BC7F2C9E0E326C07EE244020FCA
:10E3A0005345415243482D574F52444C495354BD55
:10E3B000C0FFC6D1C4A7D3D8C4A7C7E6E2E6C6DD6E
:10E3C000C7F2C27BE3D9C4A7CD13C810C61DC2BC17
:10E3D00001E326C7E6C092C5CCC7DBC842C07EDEDB
:10E3E0007B04082153454354494F4EBDC0FFC4A789
:10E3F000C2CB0035C07EE2BF04044C49542CBDC0E2
:10E40000FFC7E6C2AF0080C2BC80CD89C27BE41AE0
:10E41000D4FCC2AFCCE8E3EBC07ED4FCC2BCCCFDE4
:10E42000E3EBC07EE0D703074C49544552414CBD55
:10E43000C0FFC4DAC695C0AFE3FEC07EE0F50308B6
:10E44000324C49544552414CBDC0FFC4DAC695C058
:10E45000AFC800E3FEE3FEC07EE3F906033E4F4B88
:10E46000BDC0FFC2CB0045C07EE1650606444947FA
:10E4700049543EBDC0FFC6D1C70BC2BC30C9E0C2C3
:10E48000BC09C7F2C90EC27BE49AC2BC10C7F2C96C
:10E490000EC27BE4ACC2BC07C9E0C7E6C4CCC695DB
:10E4A000C90EC27BE4ACC5BFC72BC07EC7DBC6DDCF
:10E4B000C5CCC07EDFCB02073E4E554D424552BD16
:10E4C000C0FFC7E6C0AFC7F2C689E473C27BE4E908
:10E4D000C6D1C788C4CCC695D0C8C6DDCAC5C78852
:10E4E000C2BC01D2CDC26EE4C2C7DBC07EE28E04E4
:10E4F0000B4D494E55532D5349474E3FBDC0FFC7A5
:10E50000E6C27BE51BC7F2C689C2BC2DC8D4C27B5C
:10E51000E51BC2BC01D2CDC5BFC07EC5CCC07EE26A
:10E520006B040A3E444F544E554D424552BDC0FF08
:10E53000C5CCC7E6C788C9B9C7E6C298E549C7F2DE
:10E54000C689C2BC2EC8D4C943CE46C092C9AEE467
:10E55000BFC7E6C2CB0047C7E6C0AFC7F2C689C295
:10E56000BC2EC8E2C092C7E6C2CB0047C2BC01D2F3
:10E57000CDE4BFC07EE43F0608444E554D424552AF
:10E580003FBDC0FFE4FCC6D1E52DC842C27BE59685
:10E59000C5CCC72BC07EC6DDCA86C5BFC07EE3E240
:10E5A00004044556414CBDC0FFE385C7C9C27BE5A5
:10E5B000C5C4DAC695C937C89EC27BE5C1CCE8C0E0
:10E5C0007EC070C07EC7DBC4B3C6A1E581C27BE557
:10E5D000E1C49AC27BE5DBE448C07EC7DBE42FC020
:10E5E0007EC2BCC3D31DE0C304074F4B2D4C4F4F1D
:10E5F00050BDC0FFC571C57CCC50CC50C62CC5D613
:10E60000E294E5A6C26EE5FEDEB902045155495416
:10E61000BDC0FFC5F8D50AE24AC2AFE5F1D308CFC5
:10E6200059D6B6C7E6C960C298E633C4B3C6A1CF0F
:10E63000B0CF7BE16ACF7BC5E5C26EE615E3800211
:10E64000055448524F5710830000260435066EB11A
:10E650001083FFC8260535067EE6107ED31DDEAC8E
:10E660000409494E54455250524554BDC0FFC2CBD7
:10E670000039C2CB003BC2BC00C4BFC62CC26EE690
:10E6800083E5A6C5D6D3EFC7E6C689C298E681C79B
:10E69000DBC07EE4F002084556414C55415445BD6F
:10E6A000C0FFD2B9C6EAC4BFC695C6D1C2AFE66B39
:10E6B000D308C6DDC4BFC62CC6FBC2CB0039C2CB53
:10E6C000003BE646C07EE69604063F464F554E4464
:10E6D000BDC0FFC092C2BCF3D31DE5A1020127BD9E
:10E6E000C0FFC5D6E294E385E6D0C07EE39F020476
:10E6F00043484152BDC0FFC5D6E294C9AEC689C0E9
:10E700007EE60B03065B434841525DBDC0FFE6F465
:10E71000E42FC07EE0E107044354524CBDC0FFE645
:10E72000F4C2BC1FC937E42FC07EE2DD030128BD5F
:10E73000C0FFC2BC29D435C746C4BFC695C443C9AF
:10E740000EC092C4BFC695C27BE75AD2B9C9D7C919
:10E75000B9C689C2BC29C8D4C092E272C298E73255
:10E76000C07EE46C03015CBDC0FFC443C4BFC62CC3
:10E77000C07EE06A0206435245415445BDC0FFC514
:10E78000D6E294E2E6C7E6C6D1C4A7C2BC03C70B73
:10E79000C27BE796CC26CCDAC7E6C4A7C7F2C68907
:10E7A000C9AECBC0C62CC2BC00C6DDC27BE7CDCF94
:10E7B00059D5A30B5265646566696E696E6720C49E
:10E7C000A7C6B4CFB0CF7BC2AF0080C943C4A7C92E
:10E7D000B9C61DC4A7C7E6E2C6C7E6C695C4A7CC9E
:10E7E00096C62CC4A7C800C62CC4A7C9B9C55BC6A9
:10E7F00089C7F2C689C943C800C61DC4A7C2CB00D9
:10E8000029C689C9AECCDAC5CCDB80C111E3EBC027
:10E810007EE775040443524541BDC0FFC4A7D3D869
:10E82000C4A7C26EE783E45C0307524543555253C5
:10E8300045BDC0FFC3D4CD13D4DEC07EE52206049F
:10E8400048494445BDC0FFC3D4C7E6C689C2AF002E
:10E8500080C943C800C61DC07EE83F060652455623
:10E8600045414CBDC0FFC3D4C7E6C689C2BC7FC901
:10E8700037C800C61DC07EE6EF0209494D4D45442C
:10E8800049415445BDC0FFC3D4C9B9C2BC01C7F298
:10E89000C689C943C800C61DC07EE6DD03035B27E9
:10E8A0005DBDC0FFE6DFE42FC07EE66103095B4388
:10E8B0004F4D50494C455DBDC0FFE6DFD4DEC07E04
:10E8C000E5780308504F5354504F4E45BDC0FFC527
:10E8D000D6E294E385C7E6E6D0C89EC27BE8EBD4D7
:10E8E000FCD4FCE3EBC5B3C2DC0035D4DEC07EE76C
:10E8F00004060553544F503FBDC0FFC1F7C7E6C0E3
:10E90000AFC7DBC20CC5D6C7F2C8D4C27BE913C7F8
:10E91000DBC20CC2BC1BC7F2C8D4C2BCE4C937E618
:10E9200046C5D6C8E2C07EE8C302013ABDC0FFE7D3
:10E930007CC0FCD51AE844C5BFC5CCCDBFC07EE7BE
:10E940002D02073A4E4F4E414D45BDC0FFC4A7C2F0
:10E95000AFC0FCCC42DB80D51AC5CCC5CCCDBFE363
:10E96000EBC07EE7170208434F4E5354414E54BD4F
:10E97000C0FFE77CC7E6C2AF0080C2BC80CD89C2C1
:10E980007BE989C14FCCE8C07EC13ACCFDC07EE9AD
:10E990004202085641524941424C45BDC0FFE77C06
:10E9A000C125C5B3CCDAC07EE427020556414C55DB
:10E9B00045BDC0FFE77CC163CCE8C07EE92A0408FE
:10E9C000444F535452494E47BDC0EEBDC0D5C9AEA9
:10E9D000C6B4C07EE8AD0606535452494E47BDC08A
:10E9E000FFE77CE9C8C2AF00FFC937C2BC01C86DF0
:10E9F000C7E6CCFDC5CCCCFDCCDAC07EE85C040516
:10EA0000544F242829BDC0FFC227C7E6C9AEC6D1CE
:10EA1000C689C87EC6DDD3D8C07EE81404062B5450
:10EA20004F242829BDC0FFC227C7E6C9AEC6D1C63C
:10EA300089C70BC689C9E0C87EC70BC6B4C9D7C889
:10EA400000C7E6C6DDC663D3B8C07EE87A040749CE
:10EA50004E4352242829BDC0FFC227C7E6C9AEC60F
:10EA6000D1C689C70BC689C91BC27BEA7EC70BC644
:10EA7000B4C9D7C61DC2BC01C6DDC663C07EC7DB34
:10EA8000C72BC07E0000E9C8EA05EA24EA56EA86F8
:10EA9000C163C2CBC2DCC2F0E82904075046584C1F
:10EAA000495354BDC0FFC3C5CCE8C4A7C2CB00279F
:10EAB000C07EE9920403504658BDC0FFE6DFCC4259
:10EAC000C7E6CC50C695CC6CC3C5C754C695C8D450
:10EAD000C27BEAE6C842CC26C81FC9D7C695D5581E
:10EAE000CCE8CCE8C07ECC50C695C7E6C298EACA4E
:10EAF000C2BCE0D31DE9FF0302544FBDC0FFC2BC3E
:10EB000000EAB9C07EE8F207032B544FBDC0FFC234
:10EB1000BC02EAB9C07EE89D0704494E4352BDC01D
:10EB2000FFC2BC04EAB9C07EEA9B060956415249BD
:10EB300041424C4553BDC0FFE77CCC7ACCDAC1A240
:10EB4000C07EEAF804053C46555345BDC0FFD4C21B
:10EB5000C6DDC6C3C4A7CC50C695C8D4C428C4A7B4
:10EB6000C9B9C90EC937C27BEB79C2BCFECCDACCBD
:10EB700026C6C3CCE8C26EEB7FC6C3CCE8CC26C6A3
:10EB8000D1C07EE5E907053F45584954BDC0FFEBBC
:10EB90004BC8ABC092C0AFC07EEB1903024946BD63
:10EBA000C0FFEB4BC8ABC27BC298C4A7C7E6CCE89A
:10EBB000C2BC01CDBFC07EEB9C030541484541442A
:10EBC000BDC0FFD4FCC26EC26EEBAAEB08030557B2
:10EBD00048494C45BDC0FFEB9FC2BC01CE12C07E70
:10EBE000E9AB03045448454EBDC0FFD4C2CDD3C2E7
:10EBF000BC01D4ABC4A7C800C62CE3EBC07EE9BF00
:10EC00000305424547494EBDC0FFD4C2C4A7C2BC9C
:10EC100002CDBFE3EBC07EEBCE0305554E54494C0D
:10EC2000BDC0FFCDD3C2BC02D4ABEB4BC8ABC27BE3
:10EC3000C298CCE8C07EEC1A0305414741494EBD5D
:10EC4000C0FFCDD3C2BC02D4ABD4FCC26ECCE8C0F2
:10EC50007EE6C90304454C5345BDC0FFEBC0C2BCB2
:10EC600001CE12EBE8C07EEB45030652455045410C
:10EC700054BDC0FFEC3FEBE8C07EEC6A0302444F9A
:10EC8000BDC0FFD4FCC307C4A7C7E6CCE8C2BC0321
:10EC9000CDBFC07EEBBA03033F444FBDC0FFD4FCE1
:10ECA000C325C26EEC87EAB503044C4F4F50BDC07C
:10ECB000FFCDD3C2BC03D4ABD4FCC33DC7E6CC2646
:10ECC000CCE8C4A7C800C62CC07EEC5403052B4C6E
:10ECD0004F4F50BDC0FFCDD3C2BC03D4ABD4FCC397
:10ECE00062C26EECBCEC3903013BBDC0FFCDD3C5A5
:10ECF000CCD4ABC27BECF9E863D4FCC07ED50AC0AF
:10ED00007EEB8607017DBDC0FFD4FCC07EEBE8C072
:10ED10007EE76507025245BDC0FFD4FCC26EC3D476
:10ED2000CD13CC42CCE8C07EECE807033F5245BD92
:10ED3000C0FFEB4BC8ABC298C27BC26EED1EEB2B83
:10ED4000070352457DBDC0FFED17EBE8C07EE640EE
:10ED50000406444F4F4E4C59BDC0EEBDC0D5C689C8
:10ED6000C55BC9B9C754C61DC9B9C7E6C2CB002D1A
:10ED7000C61DC07EE4B70405444F564F43BDC0EEE8
:10ED8000BDC0D5C689C3F0C61DC07EEC9702044F36
:10ED90004E4C59BDED5B000000EC7D0005464F5226
:10EDA0005448BDED8002ED96E9660006494E534990
:10EDB0004445BDED8004EDA5ED04000545585452D1
:10EDC00041BDED8006EDB5EA1D0009415353454DA7
:10EDD000424C4552BDED8008EDC4ECCD0208574FC2
:10EDE00052444C495354BDC0FFC4A7C3A7C7E6C68D
:10EDF00089C2BC02C9D7CCFDCCE8C7E6C2CB002390
:10EE0000C689C07EEDDD0004414C534FBDC0FFC537
:10EE10004CC3F0C90EC8ABC2BCCFC937E646C3F07D
:10EE2000C689C2BCFFC2DC002DC3F0C61DC07EED8A
:10EE300077000850524556494F5553BDC0FFC3F0A7
:10EE4000C9AEC55BC90EC8ABC2BCCEC937E646C2A7
:10EE5000F0002DC07EED51000B444546494E49540B
:10EE6000494F4E53BDC0FFC3F0C689C55BC61DC028
:10EE70007EEDBB000B4745542D43555252454E5431
:10EE8000BDC0FFC55BC689C07EEA4E000B5345542A
:10EE90002D43555252454E54BDC0FFC55BC61DC0E3
:10EEA0007EED140407564F434E414D45BDC0FFC390
:10EEB000A7C754C689C8D4C27BEECAC842CC6CCDA1
:10EEC00028C6B4C2BC1FC937C07EC9AEC695C7E646
:10EED000C298EEB1C746D593013FC07EEBE306046E
:10EEE0002E564F43BDC0FFEEACCFB0C07EEE070044
:10EEF000054F52444552BDC0FFE102C3F0C55BC798
:10EF0000F2C9E0C2BC00C307EF14C6B4EEE4CF7B85
:10EF1000C33DEF0AD5A3023A20C689EEE4C07EEDD8
:10EF20009C00054652455348BDC0FFED93EDC1EE30
:10EF30000CEDA2EE0CC07EECA9060A564F434142EE
:10EF4000554C415259BDC0FFE77CEDE6C7DBED7D76
:10EF5000C07EEEF0040721544F504E4641BDC0FF25
:10EF6000C5CCC2BC23C2BC03C307EF7CC388C69513
:10EF7000C53AC9E0C88FC5B3C362EF6CC53AC9D7FB
:10EF8000C2CB0029C07EEE8C040743555254414940
:10EF90004CBDC0FFC6D1C26EEFA0C70BC9D7C69586
:10EFA000C7E6C775CD89C298EF9AC72BC07EEF3AE6
:10EFB000040728464F52474554BDC0FFC4A7C2BCF2
:10EFC00023C2BC03C307EFDBC388C695C2BCFDEFF9
:10EFD00091C388C62CC5B3C362EFC8C3A7C2BC0126
:10EFE000EF91C2CB0023C3B6C2BC02EF91C2CB00EB
:10EFF00025C3C5C2BCFEEF91C2CB0027C9E0CCDA65
:10F00000EF5DC07EEE320206464F52474554BDC00A
:10F01000FFC5D6E294C6B4C55BC689E3AFE6D0CDE2
:10F0200028C7E6CC96C800CD65C2BC02C937C9E086
:10F03000C4A7C7F2C90EC2BCF1C937E646EFB9C0D2
:10F040007EEEA4060652454D4F5645BDC0FFC3D4C3
:10F05000C689C2AF0080C937C0AFE863C3D4C7E672
:10F06000C6B4CFB0CF7BC26EF021F0440408444F49
:10F070004D41524B4552BDC0EEBDC0D5C7E6C69509
:10F08000EFB9CC26C6B4C7E6C2CB002DC55BC7F22C
:10F09000C9E0C9AED3B8C07EEDCA02064D41524B9D
:10F0A0004552BDC0FFC4A7E77CF076CCE8C3F0C7EB
:10F0B000E6CCFDC4A7C55BC3F0C9E0C9AEC7E6CCCA
:10F0C000DAD3B8C07EEF550604414E4557BDC0FFA8
:10F0D000C4BFC695C6D1C5D6D3EFC7E6C689C8ABEF
:10F0E000C2BCE0C937E646E385C8F2C937C7C9C222
:10F0F0007BF10BC7E6C9AEC695CC6CC2AFF076C843
:10F10000D4C937C7C9C27BF10BC070C6DDC4BFC646
:10F110002CF0A2C07EEE7404062148494D454DBD39
:10F12000C0FFC2AFF800C2CB0043C2AF0800C2DCD0
:10F130000043C482C695C7E6C960C482C62CC48297
:10F14000C695C7F2C482C62CC960C8E2C482C2AFE9
:10F150008000C8D4C943C27BF12AC07EE9D7020629
:10F16000554E55534544BDC0FFC482C2BC20C9E0C2
:10F17000C4A7C9E0C07EEDAB0604434F4C444F1F0B
:10F180008B10CE017E3506CE01FEBDC0FFC53AC252
:10F19000BC00C2BC65CB9AF11FEF5DC2BC00C2CB04
:10F1A000002FD533C7DBEF28EE64C2BC7FC1E4CFAC
:10F1B00059C2BC00E16ACF59D5A31F436F70797261
:10F1C000696768742028632920323030352048432D
:10F1D0004320466F7274682D6767CF59D5A31D53BE
:10F1E000797374656D303920706F72742062792084
:10F1F00048616E7320487565626E6572CF59C4822E
:10F20000C2BC0AC988C2BC09D252D5A307206B422E
:10F210002052414DCF59CF59E610EFB10406284492
:10F220004F45533EBDC0FFC6DDCD3DC07EF21D0340
:10F2300005444F45533EBDC0FFCDD3C5CCC7F2D426
:10F24000ABCDBFD4FCF224C2AFC0D5DB80E3EBC0B2
:10F250007EED2B0204434F4445BDC0FFE77CC2BC9A
:10F26000FDCCDAEDD4E844C5BFC2BC05CDBFC07E3D
:10F27000F15F03053B434F4445BDC0FFCDD3C5CC33
:10F28000D4ABC2BC05CDBFD4FCF224EDD4D50AC0AA
:10F290007EED410605444F45523ABDC0FFE92CC002
:10F2A000EBC2AFC0D5DB80C07EEE580608444F45A8
:10F2B00052434F4445BDC0FFF259C2BC03CCDAC033
:10F2C000EBC07EF0C80808454E442D434F4445BD71
:10F2D000C0FFCDD3C2BC05D4ABC27BF2DFE863EE86
:10F2E0003BEE0CC07EF254060721564543544F5264
:10F2F000BDC0FFC9AEC62CC07EEF890606454E4193
:10F30000424C45BDC0FFC2BC7EC800C61DC07EEFDA
:10F3100022060744495341424C45BDC0FFC2BC3B95
:10F32000C800C61DC07EF2C606044D414E59BDC080
:10F33000FFC4BFC695E8F8C937C4BFC62CC07EF06D
:10F3400007060554494D4553BDC0FFC437C9AEC675
:10F35000D1C2BC00C2CB0037C70BC8D4E8F8C94340
:10F36000C27BF368C72BC07EC6DDC2CB0037C2BCF0
:10F3700000C4BFC62CC07EF329040B574F52445320
:10F380004B4950504552BDC0FFC800C26EF391CCEE
:10F3900096C695C7E6C27BF3A3C754CD76C8D4C240
:10F3A0007BF38FC842C07EF342040628574F524475
:10F3B00053BDC0FFD533C63CC45CC2BC24C9D7C74B
:10F3C000E6C2BC20C9E0C2BC03C7F2C2BC20CB9AD3
:10F3D000C754C307F3E8C388C45CC6A1C070C38820
:10F3E000C62CC5B3C362F3D6CF59C2BC00C6D1C5C3
:10F3F000CCC2BCFFC775C307F424C388C695C27BC3
:10F40000F41EC7F2C388C695C53AC9E0C90EC27BCF
:10F41000F41EC746C388C695C53AC9E0C388C5B3BC
:10F42000C362F3FAC842CE46E8F8C943C27BF4414E
:10F43000C7DBC746CF59C6DDE102C2BC00D252C00D
:10F440007EC2BC3CC468C90EC27BF44ECF59C6DD37
:10F45000C9AEC6D1C7E6C695C7E6C6B4C7E6C2BC44
:10F4600020C928C27BF46DC5D6C26EF475C2BC1F1C
:10F47000C937C2BC7ECF48CFB0CF7BCC96C45CC668
:10F48000A1C070C800C62CC26EF3EFF2730005571E
:10F490004F524453BDC0FFC3F0C689C2AFF386F3D9
:10F4A000B1C07EF2FC0608414C4C574F524453BD4C
:10F4B000C0FFC2AFC695C2AFC070F3B1C07EEC0151
:10F4C0000404582E5221BDC0FFC2AF00FFCE46D16A
:10F4D00089C842C45CC61DC07EF4C104042E4144E8
:10F4E00052BDC0FFC45CC689C9C4D23CC07EF06DA9
:10F4F00004052E42595445BDC0FFC45CC689D25292
:10F50000C07EEEDF04042E415343BDC0FFC7E6C2F8
:10F51000BC7FC928C937C5D6C86DCF48C07EF29414
:10F52000020444554D50BDC0FFF4C6C4CCC695C2BC
:10F53000BC10C85DC7E6C2BC06C928C27BF541C97C
:10F54000C4C6D1C7F2C9D7C800C7E6CF59F4E1CFC6
:10F550007BC70BC2BC00C307F56AC7E6C388C9D71F
:10F56000C689F4F7CF7BC33DF55AD5A3017CC70B01
:10F57000C2BC00C307F57FC6B4F50AC33DF577D515
:10F58000A3027C20C754C800C9E0C70BC90EE8F825
:10F59000C943C27BF549C746C72BC07EF2E80405C4
:10F5A0004346413F3FBDC0FFC2AF0300C7F2C90E93
:10F5B000C7F2C53AC4A7CD89C937C800C9B9C7E6DB
:10F5C000C689C2BC21C2BC7FCD89C937C937C7E64D
:10F5D000C0AFC2BC01C6D1C9B9C6DDC7F2C689C7B2
:10F5E00054C8D4C27BF5EDC746C8F2C07EC2BC2168
:10F5F000C2BC7FCD89C27BF605C9AEC5D6C7F2C9EC
:10F6000037C27BF5D5C746C5CCC07EED8E0404431A
:10F6100046413FBDC0FFC7E6F5A5C937C7E6C0AF45
:10F62000CD28C3A7C689C7F2CD76C928C8ABC937CC
:10F63000C7E6C0AFCC96C695C7E6C298F642C9B930
:10F64000C07EC7E6C689C2BC00C2BC20CD89C27BD1
:10F65000F658CD13F5A5C07EC7DBC5CCC07EF3122E
:10F6600004052E48454144BDC0FFC7E6D59306209A
:10F67000202D2D2020C6EAC718CFB0CD28C6B4CF84
:10F68000B0C718CFB0C7E6C9AEC695CC6CC7E6F612
:10F6900013C27BF6A5C7E6D5A305646F657220CDBE
:10F6A00028C6B4CFB0C7DBC6FBCFB0CD28CD76EE31
:10F6B000E4D5A30520576F7264C07EF4DC04062EE7
:10F6C000544F4B454EBDC0FFC7F2C2BC01C937C93C
:10F6D000C4C9C4C2BC04C9D7CF8ECD28C6B4CFB06C
:10F6E000C07EF6BE04054445434F4DBDC0FFCF5913
:10F6F000C7E6F4E1D5A3023A20C7E6C6B4C7E6F4EC
:10F70000F7CF7BF50ACF7BC689C7E6F4F7CF7BF549
:10F710000ACF7BC7E6C695F4E1C5D6C7F2C2BC01E5
:10F72000C937C27BF72BC2BC0EC9D7CF48CF7BC726
:10F73000E6F613C27BF73FC7E6F667C9AEC07EC7E1
:10F74000E6C695F613C27BF763C7E6C695F6C5C94C
:10F75000AEC7E6F613C092C7E6C695F613C092C9C7
:10F76000AEC07EC9AEC07EF4A606044D534545BD6D
:10F77000C0FFF4C6F6EBE8F8C27BF774C7DBC07EC7
:10F78000F48E0203534545BDC0FFE6DFF76FC07E30
:10F79000F2AC0408444F464642415345BDC0EEBD5D
:10F7A000C0D5C4CCC695C6D1C689C4CCC62CC5D6D6
:10F7B000E294C2AFE5A6D308C6DDC4CCC62CE646AB
:10F7C000C07EF5210406464642415345BDC0FFE7D1
:10F7D0007CF79CCCFDE884C07EF4F101024858BD62
:10F7E000F79F10F3AA0102444DBDF79F0AF7E60107
:10F7F00002424EBDF79F02F59F01065B5448454EFD
:10F800005DBDC0FFC07EF783040D5B434F4E44498E
:10F8100054494F4E414C5DBDC0FFC26EF820C7DB5E
:10F82000C5D6E294C7E6C9AEC689C2BC5BC8D4C21D
:10F830007BF81EC6B4C2BC01D2CDC754D360C75436
:10F84000D593055448454E5DD389C298F856C746AE
:10F85000C0AFC26EF81AC754D59305454C53455DE9
:10F86000D389C298F870C746C7C9C0AFC26EF81A2C
:10F87000C754D5930349465DD389C298F888C746D3
:10F88000C7E6C9AEC26EF81AD59306414845414451
:10F890005DD389C298F89BC7E6C9AEC26EF81AF765
:10F8A000FA01065B454C53455DBDC0FFC2BC00F884
:10F8B00017C07EF60E01075B41484541445DBDC05F
:10F8C000FFF8A9C07EF09B01045B49465DBDC0FF07
:10F8D000C092F8A9C07EF11802024D53BDC0FFC20C
:10F8E000BC00C325F8F8C2BC12C2BC00C307F8F4C0
:10F8F000C33DF8F0C33DF8E6C07ED129F8C88801C1
:10F9000023BDC0FFC2BC00C2CB0033C07EF7DC0900
:10F9100003524547BDC0FFC2BC00C5D6D3EFC6B435
:10F92000C2BC00C325F937C6B4D711C800C6D1C9B7
:10F9300043C6DDC33DF927C7DBD558E3FED4FCF948
:10F9400001C07EF76A0806414C4C524547BDC0FFD6
:10F95000C2AF00FFF901C07EF6E50803445029BD9F
:10F96000C0FFC2BC10C2CB0033C07EF8A208022385
:10F9700029BDC0FFC800C2AF0089D6E6C07EF7939C
:10F980000803504329BDC0FFC2BC20C2CB0033C214
:10F99000AF008DC07EF96E08025B5DBDC0FFC4186C
:10F9A000C2BC20C8D4C27BF9C0C7E6C2AF009DC9A3
:10F9B00037C2AF0080C8D4D6CEC2BC10C9D7C07E73
:10F9C000C2BC20C2CB0033C2AF009FC07EEB9CF80C
:10F9D000B688024946BDC0FFCCFDC2BC00CCFDC408
:10F9E000A7C2BC06CDBFC07EEBBAF9D2880541489C
:10F9F000454144BDC0FFC2BC20F9D5C07EEBE3F554
:10FA00000588045448454EBDC0FFCDD3C2BC06D4C2
:10FA1000ABC4A7C7F2C9E0C7E6D69CC8ABD6CEC870
:10FA200000C9B9C61DC07EEC01F95B880542454797
:10FA3000494EBDC0FFC4A7C2BC07CDBFC07EEC1AF3
:10FA4000F9988805554E54494CBDC0FFCDD3C2BC72
:10FA500007D4ABC800CCFDC4A7C9AEC9E0C7E6D681
:10FA60009CC8ABD6CECCFDC07EEC39FA43880541AC
:10FA70004741494EBDC0FFC2BC20FA49C07EEC548C
:10FA8000F37A8804454C5345BDC0FFF9F3C2BC016D
:10FA9000CE12FA07C07EEC6AF661880652455045E0
:10FAA0004154BDC0FFFA74FA07C07EEBCEFA6E88EF
:10FAB000055748494C45BDC0FFF9D5C2BC01CE121F
:10FAC000C07EF7F008044E455854BDC0FFE05AE030
:10FAD000B2F99BDAC2C07E000000000F4D6169736D
:10FAE000466F72746820616E363031FFFDFAD70EB2
:10FAF000537461636B206F766572666C6F77FFFC81
:10FB0000FAEB0F537461636B20756E646572666CFB
:10FB10006F77FFF3FAFE0A43616E27742066696E01
:10FB200064FFF2FB120E4F6E6C7920636F6D70698B
:10FB30006C696E67FFF1FB210950726F7465637425
:10FB40006564FFF0FB340C456E64206F6620696EBF
:10FB5000707574FFEAFB420F5374727563747572AB
:10FB600065206572726F72FFE4FB530E5573657208
:10FB700020696E74657272757074FFE0FB671549D9
:10FB80006E76616C6964206E616D65206172677567
:10FB90006D656E74FFCFFB7A1553656172636820E3
:10FBA0006F72646572206F766572666C6F77FFCED8
:10FBB000FB9416536561726368206F7264657220EE
:10FBC000756E646572666C6F77FFC3FBAE0C576829
:10FBD0006174277320746869733FFFC2FBC91842C0
:10FBE00041534520697320726573657420746F20DA
:10FBF000646563696D616CFFC1FBDA17496C6C6504
:10FC000067616C2061646472657373696E67206DEF
:10FC10006F646520000035AC0000000000000000AB
:10FC200000000000000000000000000000000000D4
:10FC300000000000000000000000000000000000C4
:10FC400000000000000000000000000000000000B4
:10FC500000000000000000000000000000000000A4
:10FFF000C00000550058005B005E00610064F17EA7
:040000030000C00039
:00000001FF
